:020000040000FA
:100000000A128A11FA2F00308A000408840A820733
:1000100000343734003438340034393400342F3469
:1000200000343434003435340034363400342A3467
:1000300000343134003432340034333400342D345D
:1000400000344E340034303400343D3400342B342A
:100050000034FF34003448346F346C34613400347D
:10083000F03083160313850083120313850108002B
:10084000F00083160313981C212C700883120313E5
:100850009900080000300A128A114F240A128A11E6
:1008600001300A128A114F240800F000701C3C2C41
:100870008312031306163F2C831203130612F01C77
:10088000432C8616442C8612701D482C0617492CC2
:100890000613F01D4D2C8617080086130800F30080
:1008A00083120313061173080A128A1135240A12DF
:1008B0008A118312031386150B30F2006230F100A7
:1008C000F10B602CF20B602C0000831203138611D5
:1008D0000800F700F501F6017508770784000A1291
:1008E0008A1103200A128A11003A031908007508B8
:1008F000770784000A128A1103200A128A110A1249
:100900008A11AD240A128A110130F5070318F60A7C
:100910000030F6076C2CF300F101F2017108730747
:1009200084000A128A1103200A128A11003A03195C
:1009300008007108730784000A128A1103200A1242
:100940008A110A128A1120240A128A110130F10731
:100950000318F20A0030F2078E2CF40074080F39E5
:10096000F1007108F2007408F039F1007108F30029
:100970008312031306157308F10004300310F10C01
:10098000FF3E031DBE2C71080A128A1135240A127B
:100990008A118312031386151A30F100F10BCE2C45
:1009A000000083120313861172080A128A1135247B
:1009B0000A128A118312031386151A30F100F10B03
:1009C000DF2C00008312031386110800F700770361
:1009D000031D0B2D74087F3EF5007508FA007A0898
:1009E000F50004300310F50CFF3E031DF22C7508D2
:1009F000F6007608F8007A080F39F5007508F90056
:100A000078080A128A114F240A128A1179080A12E8
:100A10008A114F24080002307706031D080074086D
:100A2000BF3EF5007508FA007A08F500043003109F
:100A3000F50CFF3E031D172D7508F6007608F8002B
:100A40007A080F39F5007508F90078080A128A113A
:100A50004F240A128A1179080A128A114F240800B9
:100A600000300A128A1135240A128A113430F50036
:100A7000F130F400F40B3A2DF50B3A2D3F2D0330F5
:100A80000A128A114F240A128A110D30F500FB3028
:100A9000F400F40B492DF50B492D4E2D03300A12AD
:100AA0008A114F240A128A111D30F5009130F4008A
:100AB000F40B582DF50B582D03300A128A114F24D0
:100AC0000A128A1102300A128A114F240A128A115C
:100AD00002300A128A114F240A128A1108300A12AF
:100AE0008A114F240A128A1100300A128A114F24E7
:100AF0000A128A110C300A128A114F240A128A1122
:100B000000300A128A114F240A128A1106300A1282
:100B10008A114F2408008316031788018901831660
:100B200003138601003083120313A9000030A800CC
:100B30002530A7008030A6000A128A1124270A1245
:100B40008A118316031381130A128A1130250A129F
:100B50008A110A128A1118240A128A110A128A1199
:100B600093260A128A11700883120313B6003608FE
:100B7000FB00213084000A128A1103200A128A1114
:100B8000B6000A128A1103200A128A11B7007B08E4
:100B9000B800B90137083906031DD02D36083806CC
:100BA0000319F22D7B080A128A1120240A128A11D5
:100BB0000A128A112A240A128A11F401F40A013055
:100BC0000A128A11E6240A128A1123300A128A11A3
:100BD00069240A128A1123300A128A118B240A12FC
:100BE0008A11F82D2D300A128A1120240A128A1136
:100BF0001A3083120313B700F730B600B60BFE2D80
:100C0000B70BFE2D032EAE2D83120313A101F31F8C
:100C1000162EF009F109F209F309F00A0319F10A95
:100C20000319F20A0319F30AA101A10AF71F272EDB
:100C3000F409F509F609F709F40A0319F50A031985
:100C4000F60A0319F70A0130F8007808A106003007
:100C5000A5000030A4000030A3000030A2007308FB
:100C600072047104700403197C2EA001A00AF31B06
:100C7000472E0130F8000310F00DF10DF20DF30DC9
:100C8000F80B3B2E0130F8007808A007372E013012
:100C9000F8000310A20DA30DA40DA50DF80B492E0D
:100CA00073087702031D5E2E72087602031D5E2E06
:100CB00071087502031D5E2E70087402031C6F2EEE
:100CC0007008F4027108031C710FF5027208031C0E
:100CD000720FF6027308031C730FF702221401301F
:100CE0000310F30CF20CF10CF00CFF3E031D702E00
:100CF0000130A002031D472E210803198A2EA209E4
:100D0000A309A409A509A20A0319A30A0319A40A9D
:100D10000319A50A2508F3002408F2002308F100AE
:100D20002208F0000800F401F501F50A751C9C2E5C
:100D30008312031305149F2E8312031305107508E5
:100D4000F20001300310F20CFF3E031DA22E721CB4
:100D5000AD2E831203138514B02E83120313851056
:100D60007508F20002300310F20CFF3E031DB32E93
:100D7000721CBE2E831203130515C12E831203139A
:100D800005117508F20003300310F20CFF3E031D3D
:100D9000C42E721CCF2E831203138515D22E8312FC
:100DA000031385110330F3009730F200F20BD62EB7
:100DB000F30BD62EDB2E83120313051AFB2E013004
:100DC000F2007208F407851AFB2E0130F200720857
:100DD000F407051BFB2E0130F2007208F407851B97
:100DE000FB2E0130F2007208F4070310F50D1030ED
:100DF0007502031C962E05108510051185117408C7
:100E00007C060319172F7408F2007208FC0074089E
:100E1000F2007207013E84000A128A1103200A12AE
:100E20008A11F0000A128A110320F1000800213013
:100E300084000A128A1103200A128A11F0000A1291
:100E40008A110320F1000800831203132608AA0068
:100E50002708AB002808AC002908AD0006300310B5
:100E6000AA0DAB0DAC0DAD0DFF3E031D2F2F2D08B0
:100E7000F3002C08F2002B08F1002A08F0002608E5
:100E8000AE002708AF002808B0002908B1000630DE
:100E90000310AE0DAF0DB00DB10DFF3E031D482F79
:100EA0000030B2001230B3007A30B4000030B50028
:100EB0002E08B2022F08031C2F0F5F2F602FB302E2
:100EC0003008031C300F652F662FB4023108031C55
:100ED000310F6B2F6C2FB5023508F7003408F60080
:100EE0003308F5003208F4000A128A1104260A12A7
:100EF0008A117108FA007008F90001307A02003096
:100F000003197902031CE02F831203132608AA0099
:100F10002708AB002808AC002908AD0004300310F6
:100F2000AA0DAB0DAC0DAD0DFF3E031D8F2F2D088F
:100F3000F3002C08F2002B08F1002A08F000260824
:100F4000AE002708AF002808B0002908B10004301F
:100F50000310AE0DAF0DB00DB10DFF3E031DA82F58
:100F60000030B2001230B3007A30B4000030B50067
:100F70002E08B2022F08031C2F0FBF2FC02FB30261
:100F80003008031C300FC52FC62FB4023108031CD4
:100F9000310FCB2FCC2FB5023508F7003408F600FF
:100FA0003308F5003208F4000A128A1104260A12E6
:100FB0008A117108FA007008F900831603131815D6
:100FC00001307A0200300319790203180800790809
:100FD00083160313990018128312031398178316AC
:100FE00003138717071783120313181683160313A7
:100FF00098160800FC01FD0183010A128A118B2D4D
:04400E00F2EFFFFFCF
:00000001FF
