:020000040000FA
:100000000A128A11DF2F303400343034831603177C
:100010008801890101308316031386008701F030BF
:100020008500831203138501080083120313071C44
:1000300072283D30A300C630A200A730A100F030E6
:10004000A0006008F0006108F1000030F11BFF30F3
:10005000F200F30001300A128A1585260A128A116D
:10006000730883120313A7007208A6007108A50085
:100070007008A4000A128A11CA240A128A11831273
:1000800003132308BD002208BC002108BB00200880
:10009000BA005E08F0005F08F1000030F11BFF308D
:1000A000F200F30001300A128A1585260A128A111D
:1000B000730883120313C1007208C0007108BF00E7
:1000C0007008BE000A128A15F0250A128A11031C54
:1000D000722883120313E001E10101308706023028
:1000E0008706080083120313871C08003D30A30015
:1000F000C630A200A730A100F030A0006008F000D8
:100100006108F1000030F11BFF30F200F300013014
:100110000A128A1585260A128A117308831203139C
:10012000A7007208A6007108A5007008A4000A12B2
:100130008A11CA240A128A11831203132308BD00EC
:100140002208BC002108BB002008BA005C08F000AF
:100150005D08F1000030F11BFF30F200F3000130C8
:100160000A128A1585260A128A117308831203134C
:10017000C1007208C0007108BF007008BE000A12FA
:100180008A15F0250A128A11031C080069288312B7
:100190000313E501E6010A128A15F1210A128A11F8
:1001A0000A128A15F6210A128A11F401F40A0130A2
:1001B0000A128A1580230A128A115A30F5008030FB
:1001C000F6000A128A1543230A128A11F401F40A6E
:1001D00002300A128A1580230A128A116230F50051
:1001E0008030F6000A128A1543230A128A110A1275
:1001F0008A1561250A128A11700883120313D2002E
:100200005208E900213084000A128A150A200A12D5
:100210008A11D2000A128A150A200A128A11D30002
:100220006908D400D50153085506031D1929520841
:1002300054060319B2296908D200D3015208E70015
:100240005308E8009929E501E6010A128A15F6210A
:100250000A128A11F401F40A01300A128A15802365
:100260000A128A115A30F5008030F6000A128A15F7
:1002700043230A128A11F401F40A02300A128A1581
:1002800080230A128A116230F5008030F6000A12CB
:100290008A1543230A128A11B229E001E101660896
:1002A000DD006508DC000A128A1501220A128A1193
:1002B000831203135C085D04031D0800B22966085D
:1002C000F1006508F0000A30F2000030F3000A1275
:1002D0008A155A220A128A118312031367087007BB
:1002E000E50068080318680A7107E600D030E507E2
:1002F0000318E60AFF30E607F401F40A02300A1296
:100300008A1580230A128A11831203136608C60015
:100310006508C5000A128A150E220A128A11633076
:10032000F5008030F6000A128A1543230A128A115A
:10033000B2296808003A03199E295F296708233A01
:100340000319B229093A0319B2296B3A0319B229E0
:10035000033A03192329013A0319B229073A031969
:100360004D295F29C73083120313D200B729D20B5E
:10037000B629BA29F72883120313E501E6010A1208
:100380008A15F1210A128A110A128A15F6210A1217
:100390008A11F401F40A01300A128A1580230A1224
:1003A0008A113B30F5008030F6000A128A1543238B
:1003B0000A128A11F401F40A02300A128A15802303
:1003C0000A128A116230F5008030F6000A128A158E
:1003D00043230A128A110A128A1561250A128A1108
:1003E000700883120313D2005208E9002130840000
:1003F0000A128A150A200A128A11D2000A128A15D4
:100400000A200A128A11D3006908D400D5015308C2
:100410005506031D0D2A520854060319A62A690819
:10042000D200D3015208E7005308E8008D2AE50105
:10043000E6010A128A15F6210A128A11F401F40A59
:1004400001300A128A1580230A128A113B30F50006
:100450008030F6000A128A1543230A128A11F40129
:10046000F40A02300A128A1580230A128A116230B5
:10047000F5008030F6000A128A1543230A128A1109
:10048000A62AE001E1016608DF006508DE000A1225
:100490008A1501220A128A11831203135E085F046F
:1004A000031D0800A62A6608F1006508F0000A305E
:1004B000F2000030F3000A128A155A220A128A1139
:1004C0008312031367087007E50068080318680AB9
:1004D0007107E600D030E5070318E60AFF30E607AB
:1004E000F401F40A02300A128A1580230A128A11D2
:1004F000831203136608C6006508C5000A128A1530
:100500000E220A128A116330F5008030F6000A12BA
:100510008A1543230A128A11A62A6808003A031989
:10052000922A532A6708233A0319A62A093A03197B
:10053000A62A6B3A0319172A033A0319A62A013A85
:100540000319A62A073A0319412A532AC7308312EE
:100550000313D200AB2AD20BAA2AAE2AEB298312AC
:100560000313E201E20A0130E0070318E10A003058
:10057000E1070A128A1115200A128A118312031345
:100580006008F0006108F1000030F11BFF30F2005C
:10059000F30001300A128A1585260A128A1173089F
:1005A00083120313A7007208A6007108A500700843
:1005B000A4003D30A300C630A200A730A100F03057
:1005C000A0000A128A11CA240A128A118312031384
:1005D0002308BD002208BC002108BB002008BA0087
:1005E0000A128A156F240A128A11831203133B0818
:1005F000DB003A08DA00071CC62B6008F00061082F
:10060000F1000030F11BFF30F200F30001300A125C
:100610008A1585260A128A11730883120313A7000C
:100620007208A6007108A5007008A4003D30A30060
:10063000C630A200A730A100F030A0000A128A1133
:10064000CA240A128A11831203132308BD00220848
:10065000BC002108BB002008BA005A08F0005B0863
:10066000F1000030F11BFF30F200F30001300A12FC
:100670008A1585260A128A11730883120313C10092
:100680007208C0007108BF007008BE000A128A1507
:10069000CA230A128A110318C62B83120313600897
:1006A000F0006108F1000030F11BFF30F200F300B0
:1006B00001300A128A1585260A128A1173088312DC
:1006C0000313A7007208A6007108A5007008A40013
:1006D0003D30A300C630A200A730A100F030A0003A
:1006E0000A128A11CA240A128A11831203132308D8
:1006F000BD002208BC002108BB002008BA000A1275
:100700008A156F240A128A11831203133B08DB0037
:100710003A08DA000A128A15F6210A128A11F4013F
:10072000F40A01300A128A1580230A128A112D3028
:10073000F5008030F6000A128A1543230A128A1146
:10074000F401F40A02300A128A1580230A128A116F
:10075000831203135B08C6005A08C5000A128A15E3
:100760000E220A128A115130F5008030F6000A126A
:100770008A1543230A128A11831203135F08C600E5
:100780005E08C5000A128A150E22080083120313A0
:10079000871C08006008F0006108F1000030F11BC0
:1007A000FF30F200F30001300A128A1585260A1282
:1007B0008A11730883120313A7007208A600710838
:1007C000A5007008A4003D30A300C630A200A730E9
:1007D000A100F030A0000A128A11CA240A128A115C
:1007E000831203132308BD002208BC002108BB00AC
:1007F0002008BA005A08F0005B08F1000030F11B35
:10080000FF30F200F30001300A128A1585260A1221
:100810008A11730883120313C1007208C0007108A3
:10082000BF007008BE000A128A15CA230A128A1174
:1008300003180800831203136008F0006108F10038
:100840000030F11BFF30F200F30001300A128A156C
:1008500085260A128A11730883120313A7007208EF
:10086000A6007108A5007008A4003D30A300C630A2
:10087000A200A730A100F030A0000A128A11CA24F9
:100880000A128A11831203132308BD002208BC0038
:100890002108BB002008BA000A128A156F240A1228
:1008A0008A11831203133B08DB003A08DA000A12AC
:1008B0008A15F6210A128A11F401F40A01300A128B
:1008C0008A1580230A128A114630F5008030F6001E
:1008D0000A128A1543230A128A11F401F40A02301B
:1008E0000A128A1580230A128A11831203136008E0
:1008F000F0006108F1000030F11BFF30F200F3005E
:1009000001300A128A1585260A128A117308831289
:100910000313A7007208A6007108A5007008A400C0
:100920003D30A300C630A200A730A100F030A000E7
:100930000A128A11CA240A128A1183120313230885
:10094000BD002208BC002108BB002008BA000A1222
:100950008A156F240A128A11831203133B08C600FA
:100960003A08C5000A128A150E220A128A1151305D
:10097000F5008030F6000A128A1543230A128A1104
:10098000831203135D08C6005C08C5000A128A15AD
:100990000E2208008312031323088039A8002808B8
:1009A000AD002308A8002807A9002908B300A21B4E
:1009B000331433080319E92C330A031DE72C0030E4
:1009C000A3000030A2000030A1000030A000A21758
:1009D000F12C0030A3000030A2000030A100003054
:1009E000A00027088039A8002808AD062708A8001D
:1009F0002807A9002908B200A61B321432080319DF
:100A00000E2D320A031D0C2D0030A7000030A60069
:100A10000030A5000030A400A617162D0030A70056
:100A20000030A6000030A5000030A4003208031DED
:100A30003308031D242D0030A3000030A200003035
:100A4000A1000030A00008002008A8002808F0003D
:100A500026080A128A157B220A128A11710883124B
:100A60000313B9007008B8003808A800A901AA014A
:100A7000AB012B08B1002A08B0002908AF002808F4
:100A8000AE003908A800A901AA01AB012B08B700E4
:100A90002A08B6002908B5002808B4002108A800D3
:100AA0002808F00025080A128A157B220A128A11EA
:100AB000710883120313B9007008B8003808A80041
:100AC000A901AA01AB012808AE07290803110318E0
:100AD000013E031DAF072A0803110318013E031D41
:100AE000B0072B0803110318013E031DB107390895
:100AF000A800A901AA01AB012808B407290803111D
:100B00000318013E031DB5072A0803110318013E0F
:100B1000031DB6072B0803110318013E031DB70779
:100B20002208A8002808F00024080A128A157B224F
:100B30000A128A11710883120313B9007008B800F1
:100B40003808A800A901AA01AB012808AE072908A6
:100B500003110318013E031DAF072A0803110318F0
:100B6000013E031DB0072B0803110318013E031DAE
:100B7000B1073908A800A901AA01AB012808B407E8
:100B8000290803110318013E031DB5072A080311A4
:100B90000318013E031DB6072B0803110318013E7D
:100BA000031DB7070830A8000310AE0DAF0DB00D40
:100BB000B10DA80BD42D2108A8002808F0002408A6
:100BC0000A128A157B220A128A11710883120313F2
:100BD000B9007008B8003808A8003908A900AA01AF
:100BE000AB012808AE07290803110318013E031DB5
:100BF000AF072A0803110318013E031DB0072B0895
:100C000003110318013E031DB1072008A80028089E
:100C1000F00025080A128A157B220A128A1171082F
:100C200083120313B9007008B8003808A800390807
:100C3000A900AA01AB012808AE072908031103186F
:100C4000013E031DAF072A0803110318013E031DCF
:100C5000B0072B0803110318013E031DB10708302C
:100C6000A8000310AE0DAF0DB00DB10DA80B312EC5
:100C70002008A8002808F00024080A128A157B2200
:100C80000A128A11710883120313B9007008B800A0
:100C90003808A8003908A900AA01AB012808AE0746
:100CA000290803110318013E031DAF072A08031189
:100CB0000318013E031DB0072B0803110318013E62
:100CC000031DB1072108A8002808F00026080A1211
:100CD0008A157B220A128A11710883120313B90044
:100CE0007008B8003808A8003908A900AA01AB01AB
:100CF0002808B407290803110318013E031DB5078E
:100D00002A0803110318013E031DB6072B0803111F
:100D10000318013E031DB7072208A8002808F000A9
:100D200025080A128A157B220A128A117108831279
:100D30000313B9007008B8003808A8003908A900E2
:100D4000AA01AB012808B407290803110318013EC2
:100D5000031DB5072A0803110318013E031DB6073A
:100D60002B0803110318013E031DB7072208A80032
:100D70002808F00026080A128A157B220A128A1116
:100D8000710883120313B9007008B8003808A8006E
:100D90003908A900AA01AB0108300310A80DA90D5C
:100DA000AA0DAB0DFF3E031DCD2E2808B407290860
:100DB00003110318013E031DB5072A080311031888
:100DC000013E031DB6072B0803110318013E031D46
:100DD000B7072E08A8002F08A9003008AA0031087C
:100DE000AB0018300310AB0CAA0CA90CA80CFF3EEA
:100DF000031DF22E2808B407290803110318013E29
:100E0000031DB5072A0803110318013E031DB60789
:100E10002B0803110318013E031DB7070830A80073
:100E20000310AE0DAF0DB00DB10DA80B102F330890
:100E30003207A800A901A90D2808823EB800290898
:100E40000318013EFF3EB900B61B412F0130A80038
:100E50000310B40DB50DB60DB70DA80B282FB11B9F
:100E600034140130A8000310AE0DAF0DB00DB10D5C
:100E7000A80B332FFF30B8070318B90AFF30B907A2
:100E8000242FB201B11F5A2FFF302E05A800FF30CA
:100E90002F05A900FF303005AA007F303105AB00D7
:100EA0002B082A042904280403193418582F5A2F10
:100EB000B201B20A320803198C2F0130B407003096
:100EC00003180130B507003003180130B6070030B1
:100ED00003180130B707371C8C2F3408A8003508D9
:100EE000A9003608AA003708AB000130AC002B0D72
:100EF000AB0CAA0CA90CA80CAC0B772F2B08B700D5
:100F00002A08B6002908B5002808B4000130B8073F
:100F10000318B90A0030B9073908803AFF00803059
:100F20007F02031D952FFF303802031CA22F7F3054
:100F300083120313B7008030B6000030B5000030D4
:100F4000B400D22F831203133908803AFF00803097
:100F50007F02031DAD2F013038020318BB2F003074
:100F600083120313B7000030B6000030B500003024
:100F7000B400AD01D22F831203133808A80028084B
:100F8000B300FF30B405FF30B5057F30B605003043
:100F9000B7053318B6173308A8000310280CA900AA
:100FA0002908B7002D08A8002808B7043708A300AF
:100FB0003608A2003508A1003408A00008000A1273
:100FC0008A1103200A128A11E7000A128A110420EA
:100FD0000A128A11E8000A128A110520E900DA01D2
:100FE000DB01DC01DD01DE01DF01E001E101E20105
:100FF000E301E401E501E60183010A128A15DC2C14
:10100000FF1B0A2883137F1883170008840A03191B
:10101000FF0A080008308A000408840A82070034A6
:101020004134003431340034323400343334003449
:10103000423400343434003435340034363400342F
:101040004334003437340034383400343934003415
:10105000443400342A34003430340034233400342F
:10106000FF340034013400340A3400346434003472
:10107000E8340334103427344434693472343A3455
:1010800020344134643465346C3461346E347434E7
:10109000653400344134643465346C3461346E3406
:1010A000743465343A34203400344434693472344E
:1010B0003A3420344134743472346134733400343B
:1010C000203443346D342034643465343A3420346D
:1010D0000034413474347234613473343A3420341B
:1010E00000343034203443346D34003425346434D7
:0210F0000034CA
:1013E2008312031387100710080000300A128A15AF
:1013F20040220A128A1501300A128A154022080078
:10140200831203135C085D04031908005E085F047D
:1014120003190800071487100800673083120313AA
:10142200C7004708A0004608A2004508A1004830AE
:101432000A128A1528270A128A154830F500003048
:10144200F6000A128A1543230800F000701C2D2AA8
:10145200831203130616302A831203130612F01C9A
:10146200342A8616352A8612701D392A06173A2A18
:101472000613F01D3E2A8617080086130800F300A3
:1014820083120313061173080A128A1526220A12FE
:101492008A158312031386150630F2003030F100EC
:1014A200F10B512AF20B512A000083120313861109
:1014B2000800F401F501701C642A7208F40703188D
:1014C200F50A7308F50701300310F20DF30DFF3E24
:1014D200031D652A01300310F10CF00CFF3E031DC1
:1014E2006C2A70087104031D5C2A7508F1007408E7
:1014F200F0000800F800F401F5017008F200F301B1
:101502007208F6007308F700781C8D2A7608F40733
:101512000318F50A7708F50701300310F60DF70DE9
:10152200FF3E031D8E2A0310F80C7808031D852A3E
:101532007508F1007408F0000800780879040319AE
:10154200CB2AFD01FD0AF91BB22A01300310F80D66
:10155200F90DFF3E031DA72A0130FC007C08FD07A0
:10156200A42A79087B02031DB82A78087A02031C90
:10157200C02A7808FA027908031CFB03FB02013037
:101582000310F90CF80CFF3E031DC12A0130FD02C5
:10159200031DB22A7B08F9007A08F8000800F4005B
:1015A20074080F39F1007108F2007408F039F10083
:1015B2007108F3008312031306157308F100043057
:1015C2000310F10CFF3E031DE12A71080A128A156D
:1015D20026220A128A158312031386150D30F10092
:1015E200F10BF12A83120313861172080A128A156B
:1015F20026220A128A158312031386150D30F10072
:10160200F10B012B8312031386110800F501F60179
:101612007008710403193E2BF701F70AF11B1D2B09
:1016220001300310F00DF10DFF3E031D122B0130AE
:10163200F4007408F7070F2B01300310F50DF60DB7
:10164200FF3E031D1E2B71087302031D2A2B700817
:101652007202031C332B7008F2027108031CF3039D
:10166200F302751401300310F10CF00CFF3E031D60
:10167200342B0130F702031D1D2B7608F10075088B
:10168200F0000800FA01FB017A087507F8007608F5
:10169200F7000318F70AFA1BF7037708F90079082D
:1016A20083120313FF00780884000A128A150020AF
:1016B2000A128A15003A031908007A087507F80019
:1016C2007608F7000318F70AFA1BF7037708F90000
:1016D200790883120313FF00780884000A128A151E
:1016E20000200A128A150A128A15D0220A128A15B5
:1016F2000130FA070318FB0A0030FB07452BF700FD
:101702007703031DA52B74087F3EF5007508FA00C8
:101712007A08F50004300310F50CFF3E031D8C2BF4
:101722007508F6007608F8007A080F39F500750892
:10173200F90078080A128A1540220A128A157908D5
:101742000A128A154022080002307706031D08009B
:101752007408BF3EF5007508FA007A08F5000430F7
:101762000310F50CFF3E031DB12B7508F600760839
:10177200F8007A080F39F5007508F90078080A129E
:101782008A1540220A128A1579080A128A154022FD
:1017920008000030831203133A05C20000303B05F3
:1017A200C30080303C05C4007F303D05C5004508BC
:1017B200440443044204031DE62B0030BD00003004
:1017C200BC000030BB000030BA0000303E05C20051
:1017D20000303F05C30080304005C4007F30410522
:1017E200C5004508440443044204031D002C003094
:1017F200C1000030C0000030BF000030BE00410810
:101802003D06031D0E2C40083C06031D0E2C3F080E
:101812003B06031D0E2C3E083A060319122C031038
:1018220008000314080000300A128A1526220A1240
:101832008A151A30F500F830F400F40B1E2CF50B63
:101842001E2C000003300A128A1540220A128A1541
:101852000730F5007D30F400F40B2D2CF50B2D2C08
:1018620003300A128A1540220A128A150F30F50037
:101872004730F400F40B3B2CF50B3B2C402C03308F
:101882000A128A1540220A128A1502300A128A1591
:1018920040220A128A1502300A128A1540220A12BE
:1018A2008A1508300A128A1540220A128A15003057
:1018B2000A128A1540220A128A150C300A128A1557
:1018C20040220A128A1500300A128A1540220A1290
:1018D2008A1506300A128A15402208000310831264
:1018E20003133C0D3D0DBE003E08C4004408031D19
:1018F200832C0030BD000030BC000030BB00003043
:10190200BA0008003A08BE003B08BF003C08C0000D
:101912003D08C1001F300310C10CC00CBF0CBE0C2F
:10192200FF3E031D8C2C3E08C2004208C300BC17B8
:10193200FF30BA05FF30BB05FF30BC050030BD05E6
:101942009630C402C41FBA2C4408803A973E031C46
:101952007A2C01300310BD0CBC0CBB0CBA0CFF3E40
:10196200031DAB2C0130BE003E08C4070319CD2C69
:10197200AA2C2030440203187A2C44080319CD2CD7
:101982000130BE000310BA0DBB0DBC0DBD0DBE0B68
:10199200C32C0130C402BE2C430803190800BA0943
:1019A200BB09BC09BD09BA0A0319BB0A0319BC0A5F
:1019B2000319BD0A08000A128A1106200A128A15A2
:1019C2000A128A1514240A128A150A128A15F1219A
:1019D2000A128A150A128A11BB210A128A150A12E0
:1019E2008A11C7200A128A150A128A1561250A125B
:1019F2008A15700883120313D6005608E9002130B5
:101A020084000A128A150A200A128A15D6000A12BE
:101A12008A150A200A128A15D7006908D800D90146
:101A220057085906031D172D56085806031D322D57
:101A3200482D0A128A11BB210A128A15482D0A1250
:101A42008A11C7200A128A15482D0A128A15F12115
:101A52000A128A15482D0A128A1501220A128A15BB
:101A6200482D6908D600D7015708003A03193A2DC4
:101A7200482D5608413A03191A2D033A0319202D0D
:101A8200013A0319262D073A03192C2D482D8312EA
:101A92000313061C552D6208031D552D0A128A11C7
:101AA200AF220A128A15582D0618582DE201C730A6
:101AB20083120313D6005D2DD60B5C2D602DF52C01
:101AC200F301F401F40A741C6A2D83120313051442
:101AD2006D2D8312031305107408F20001300310F8
:101AE200F20CFF3E031D702D721C7B2D831203131B
:101AF20085147E2D8312031385107408F2000230C0
:101B02000310F20CFF3E031D812D721C8C2D8312DB
:101B1200031305158F2D8312031305117408F200A8
:101B220003300310F20CFF3E031D922D721C9D2DFB
:101B3200831203138515A02D831203138511C73059
:101B4200F200A32DF20BA22DA62DA72D83120313B3
:101B5200051AC72D0130F2007208F307851AC72D46
:101B62000130F2007208F307051BC72D0130F200A5
:101B72007208F307851BC72D0130F2007208F307C4
:101B82000310F40D10307402031C642D051085102F
:101B920005118511730863060319E32D7308F2001A
:101BA2007208E3007308F2007207013E84000A1211
:101BB2008A150A200A128A15F0000A128A150A20CA
:101BC200F1000800213084000A128A150A200A1244
:101BD2008A15F0000A128A150A20F1000800003066
:101BE200831203133A05C20000303B05C300803064
:101BF2003C05C4007F303D05C5004508440443044C
:101C02004204031D0C2E0030BD000030BC00003029
:101C1200BB000030BA0000303E05C20000303F0574
:101C2200C30080304005C4007F304105C50045082F
:101C3200440443044204031D262E0030C100003038
:101C4200C0000030BF000030BE00BD1F4C2E00306F
:101C5200C2000030C3000030C4008030C5003A0822
:101C6200C2023B08031C3B0F372E382EC3023C082E
:101C7200031C3C0F3D2E3E2EC4023D08031C3D0FAB
:101C8200432E442EC5024508BD004408BC0043084B
:101C9200BB004208BA00C11F722E0030C2000030E1
:101CA200C3000030C4008030C5003E08C2023F08B5
:101CB200031C3F0F5D2E5E2EC3024008031C400F23
:101CC200632E642EC4024108031C410F692E6A2E42
:101CD200C5024508C1004408C0004308BF004208CD
:101CE200BE008030BD068030C10641083D02031DA2
:101CF200080040083C02031D08003F083B02031D88
:101D020008003E083A020800F8007808031DF31F95
:101D12009A2E7009FA007109FB007209FC0073091E
:101D2200FD00FA0A0319FB0A0319FC0A0319FD0A4A
:101D3200A22E7308FD007208FC007108FB007008F7
:101D4200FA007308720471047004031DB12E00308E
:101D5200F3000030F2000030F1000030F000080023
:101D62009630F4007408F900FE307D050319E22E66
:101D72000130F4007408F90701300310FD0CFC0C6B
:101D8200FB0CFA0CFF3E031DBE2EB52E0130F400F3
:101D92007408F9070130FA07003003180130FB0715
:101DA200003003180130FC07003003180130FD0732
:101DB20001300310FD0CFC0CFB0CFA0CFF3E031D62
:101DC200DA2EFF307D050319F62EC72E0230790276
:101DD200031CF82E0130F9020130F4000310FA0D51
:101DE200FB0DFC0DFD0DF40BEF2EFC1FE72E7918F9
:101DF200022FFF30FA05FF30FB057F30FC05FF3074
:101E0200FD050310F90C7908F400F501F601F7015C
:101E120018300310F40DF50DF60DF70DFF3E031DFE
:101E22000A2F7408FA047508FB047608FC04770884
:101E3200FD047808031DF31F1F2FFD177D08F30013
:101E42007C08F2007B08F1007A08F0000800831297
:101E52000313AB002130A3002308A6000130A00722
:101E6200FF30200784000A128A150A200A128A15F6
:101E7200A3002308AC002C080319FB2F25302C06E5
:101E820003194F2F2C08A3002B0884002308831367
:101E920080000130A3002308AB072F2FA7010130D8
:101EA200A007FF30200784000A128A150A200A12AE
:101EB2008A15AC00A300A4012408003A0319622F7A
:101EC2002F2F2308003A0319FB2F643A03196D2FB1
:101ED2000D3A03196D2F2F2F260884008313000853
:101EE200A900840A0008AA000230A3002308A6075A
:101EF200AA1F842F0330A3002308A704A909AA0953
:101F0200A90A0319AA0AAC01AC0A2C08A3002307E8
:101F1200233E84000A128A150A200A128A15A40096
:101F22000A128A150A200A128A15A50025082A0211
:101F3200031D9D2F24082902031CA72F0130A30093
:101F42002308AC0705302C06031D862F270803390A
:101F52000319B62F2D30A3002B0884002308831306
:101F620080000130A3002308AB072C08A30023083C
:101F7200A800FF30A3002308A807280A03192F2F5F
:101F82000A30F8000030F9002808A3002307233E96
:101F920084000A128A150A200A128A15F0000A120F
:101FA2008A150A200A128A15F1002A08F300290864
:101FB200F2000A128A1507230A128A157108FB0019
:101FC2007008FA000A128A159E220A128A157808E7
:101FD200303E83120313A4002408AC002C08A30093
:101FE2002B0884002308831380000130A3002308F8
:0E1FF200AB07BA2F2B08840083138001080070
:04400E00F4EFFFFFCD
:00000001FF
