:020000040000FA
:100000000A128A11E42FFF1B0D2883137F18831710
:100010000008840A0319FF0A080000308A00040857
:10002000840A8207003441340034313400343234DD
:100030000034333400344234003434340034353442
:100040000034363400344334003437340034383428
:10005000003439340034443400342A340034303429
:10006000003423340034FF340034013400340A34C3
:10007000003464340034E834033410342734563404
:10008000613420346134203463346F346E34663428
:1000900069346734753472346134723420346434B2
:1000A0006534723465346334683461342034003428
:1000B00043346F346E346634693467342D346934B4
:1000C0007A3471347534693465347234643461342B
:1000D0003A342034003456346134203461342034CE
:1000E00063346F346E346634693467347534723413
:1000F00061347234203449342034003443346F3452
:100100006E346634693467342D3464346534723443
:1001100065346334683461343A3420340034533401
:1001200074346F34703420344D346F3474346F341D
:1001300072340034523475346E3420344D346F349C
:0E01400074346F347234003425346434003467
:100152007D300A128A110E21080000300A128A111B
:10016200D3200A128A1101300A128A11D320080000
:10017200F000701CC028831203130616C3288312D2
:1001820003130612F01CC7288616C8288612701D93
:10019200CC280617CD280613F01DD1288617080093
:1001A20086130800F30083120313061173080A1260
:1001B2008A11B9200A128A118312031386150B3091
:1001C200F2006230F100F10BE428F20BE4280000A7
:1001D2008312031386110800F401F501701CF7283D
:1001E2007208F4070318F50A7308F50701300310C3
:1001F200F20DF30DFF3E031DF82801300310F10C40
:10020200F00CFF3E031DFF2870087104031DEF2848
:100212007508F1007408F0000800F300F101F20122
:100222007108730784000A128A110D200A128A11BA
:10023200003A031908007108730784000A128A1130
:100242000D200A128A110A128A15DE270A128A1151
:100252000130F1070318F20A0030F2071129780879
:10026200790403195D29FD01FD0AF91B44290130B6
:100272000310F80DF90DFF3E031D39290130FC0072
:100282007C08FD07362979087B02031D4A29780874
:100292007A02031C52297808FA027908031CFB032C
:1002A200FB0201300310F90CF80CFF3E031D532929
:1002B2000130FD02031D44297B08F9007A08F80089
:1002C2000800F40074080F39F1007108F200740894
:1002D200F039F1007108F300831203130615730855
:1002E200F10004300310F10CFF3E031D7329710865
:1002F2000A128A11B9200A128A118312031386156F
:100302001A30F100F10B83290000831203138611C6
:1003120072080A128A11B9200A128A11831203136F
:1003220086151A30F100F10B942900008312031391
:1003320086110800F501F601700871040319D2292B
:10034200F701F70AF11BB12901300310F00DF10D8D
:10035200FF3E031DA6290130F4007408F707A32904
:1003620001300310F50DF60DFF3E031DB229710891
:100372007302031DBE2970087202031CC72970088C
:10038200F2027108031CF303F30275140130031027
:10039200F10CF00CFF3E031DC8290130F702031DCA
:1003A200B1297608F1007508F0000800FA01FB0196
:1003B2007A087507F8007608F7000318F70AFA1B9F
:1003C200F7037708F900790883120313FF0078080E
:1003D20084000A128A1103200A128A11003A0319B0
:1003E20008007A087507F8007608F7000318F70A7C
:1003F200FA1BF7037708F900790883120313FF0049
:10040200780884000A128A1103200A128A110A1239
:100412008A1162210A128A110130FA070318FB0AB3
:100422000030FB07D929F7007703031D392A740826
:100432007F3EF5007508FA007A08F50004300310D3
:10044200F50CFF3E031D202A7508F6007608F80019
:100452007A080F39F5007508F90078080A128A112E
:10046200D3200A128A1179080A128A11D3200800AD
:1004720002307706031D08007408BF3EF5007508B8
:10048200FA007A08F50004300310F50CFF3E031D54
:10049200452A7508F6007608F8007A080F39F50043
:1004A2007508F90078080A128A11D3200A128A11F3
:1004B20079080A128A11D320080088300A128A1198
:1004C2000E210A128A1183120313BD01BE010A1200
:1004D2008A11AE200A128A11F401F40A01300A12BA
:1004E2008A1114220A128A11831203133E08AE00E3
:1004F2003D08AD000A128A15E8270A128A110B304C
:1005020083120313BC002630BB005D30BA00BA0B65
:10051200882ABB0B882ABC0B882A57300A128A15F4
:10052200DE270A128A11013083120313BD07031852
:10053200BE0A0030BE073E08803AFF0081307F02CB
:10054200031DA52A2C303D0203180800682A00303A
:100552000A128A11B9200A128A113430F500F130D8
:10056200F400F40BB22AF50BB22AB72A03300A12AE
:100572008A11D3200A128A110D30F500FB30F400E3
:10058200F40BC12AF50BC12AC62A03300A128A11BA
:10059200D3200A128A111D30F5009130F400F40BB9
:1005A200D02AF50BD02A03300A128A11D3200A125C
:1005B2008A1102300A128A11D3200A128A110230D9
:1005C2000A128A11D3200A128A1108300A128A11D9
:1005D200D3200A128A1100300A128A11D3200A1279
:1005E2008A110C300A128A11D3200A128A110030A1
:1005F2000A128A11D3200A128A1106300A128A11AB
:10060200D320080083120313A101F31F152BF00955
:10061200F109F209F309F00A0319F10A0319F20ABE
:100622000319F30AA101A10AF71F262BF409F50900
:10063200F609F709F40A0319F50A0319F60A031968
:10064200F70A0130F8007808A1060030A500003052
:10065200A4000030A3000030A200730872047104E9
:10066200700403197B2BA001A00AF31B462B013057
:10067200F8000310F00DF10DF20DF30DF80B3A2B0B
:100682000130F8007808A007362B0130F80003107B
:10069200A20DA30DA40DA50DF80B482B730877022C
:1006A200031D5D2B72087602031D5D2B7108750216
:1006B200031D5D2B70087402031C6E2B7008F4027C
:1006C2007108031C710FF5027208031C720FF60207
:1006D2007308031C730FF702221401300310F30C8A
:1006E200F20CF10CF00CFF3E031D6F2B0130A00247
:1006F200031D462B21080319892BA209A309A4096A
:10070200A509A20A0319A30A0319A40A0319A50A2F
:100712002508F3002408F2002308F1002208F00063
:100722000800F401F501F50A751C9B2B83120313D3
:1007320005149E2B8312031305107508F200013075
:100742000310F20CFF3E031DA12B721CAC2B831273
:1007520003138514AF2B8312031385107508F2005F
:1007620002300310F20CFF3E031DB22B721CBD2B94
:10077200831203130515C02B831203130511750889
:10078200F20003300310F20CFF3E031DC32B721C58
:10079200CE2B831203138515D12B831203138511DC
:1007A2000330F3009730F200F20BD52BF30BD52B6D
:1007B200DA2B83120313051AFA2B0130F2007208A6
:1007C200F407851AFA2B0130F2007208F407051BB0
:1007D200FA2B0130F2007208F407851BFA2B013064
:1007E200F2007208F4070310F50D10307502031CB5
:1007F200952B051085100511851174084B060319F8
:10080200162C7408F2007208CB007408F20072070A
:10081200013E84000A128A110D200A128A11F00088
:100822000A128A110D20F1000800213084000A12F8
:100832008A110D200A128A11F0000A128A110D2063
:10084200F10008000A128A11AE200A128A11F4017C
:10085200F40A01300A128A1114220A128A116C3027
:10086200F5008030F6000A128A11D7210A128A1185
:1008720083120313CD01CE010A128A11A9200A1292
:100882008A11F401F40A02300A128A1114220A129D
:100892008A110A128A1192230A128A11700883128B
:1008A2000313BF003F08D100213084000A128A11CD
:1008B2000D200A128A11BF000A128A110D200A1293
:1008C2008A11C0005108C100C20140084206031D3E
:1008D2006C2C3F0841060319C82C5108BF00C00107
:1008E2003F08CF004008D000AF2C4E08CA004D0888
:1008F200C9000A128A115E2208004E08F1004D0852
:10090200F0000A30F2000030F3000A128A11ED20E2
:100912000A128A11831203134F087007CD00500880
:100922000318500A7107CE00D030CD070318CE0A43
:10093200FF30CE07F401F40A02300A128A1114229F
:100942000A128A11831203134E08AE004D08AD003D
:100952000A128A15E8270A128A11C82C5008003A8E
:100962000319B42C7E2C4F08233A0319C82C093AD8
:100972000319C82C6B3A0319C82C033A0319C82C63
:10098200013A0319C82C073A0319762C7E2C1A3027
:1009920083120313C000F730BF00BF0BCE2CC00B75
:1009A200CE2CD32C4A2C0A128A11AE200A128A119A
:1009B200F401F40A01300A128A1114220A128A116D
:1009C2004630F5008030F6000A128A11D7210A1249
:1009D2008A1183120313CD01CE010A128A11A920B2
:1009E2000A128A11F401F40A02300A128A1114223C
:1009F2000A128A110A128A1192230A128A117008A3
:100A020083120313BF003F08D100213084000A1271
:100A12008A110D200A128A11BF000A128A110D20B2
:100A22000A128A11C0005108C100C20140084206E0
:100A3200031D1D2D3F0841060319792D5108BF00E2
:100A4200C0013F08CF004008D000602D4E08C8000A
:100A52004D08C7000A128A115E2208004E08F100F2
:100A62004D08F0000A30F2000030F3000A128A1139
:100A7200ED200A128A11831203134F087007CD006A
:100A820050080318500A7107CE00D030CD07031862
:100A9200CE0AFF30CE07F401F40A02300A128A119C
:100AA20014220A128A11831203134E08AE004D0853
:100AB200AD000A128A15E8270A128A11792D500808
:100AC200003A0319652D2F2D4F08233A0319792D6A
:100AD200093A0319792D6B3A0319792D033A03194F
:100AE200792D013A0319792D073A0319272D2F2D54
:100AF2001A3083120313C000F730BF00BF0B7F2DE3
:100B0200C00B7F2D842DFB2C8316031788018901CE
:100B1200831603138601003083120313A9000030E9
:100B2200A8002530A7008030A6000A128A113626B6
:100B32000A128A118316031381130A128A11A82238
:100B42000A128A110A128A15D6270A128A110A1261
:100B52008A11AE200A128A11F401F40A01300A1233
:100B62008A1114220A128A110A128A1192230A1273
:100B72008A11700883120313C3004308D100213085
:100B820084000A128A110D200A128A11C3000A1265
:100B92008A110D200A128A11C4005108C500C6012B
:100BA20044084606031DD72D43084506031D142E8F
:100BB200A82D2D300A128A110E210A128A110A1248
:100BC2008A1123240A128A112A2E59300A128A11F2
:100BD2000E210A128A110A128A11AE200A128A11F1
:100BE200F401F40A01300A128A1114220A128A113B
:100BF2006C30F5008030F6000A128A11D7210A12F1
:100C02008A110A128A11D4240A128A112A2E0A126D
:100C12008A11A9200A128A112A2E0A128A115E2228
:100C22000A128A112A2E5108C300C4014408003A4C
:100C320003191C2E2A2E4308413A0319DA2D033ACE
:100C42000319E62D013A0319082E073A03190E2E4D
:100C52002A2E1A3083120313C400F730C300C30BC9
:100C6200302EC40B302E352EA82D831203132608E6
:100C7200AA002708AB002808AC002908AD000630FE
:100C82000310AA0DAB0DAC0DAD0DFF3E031D412EA1
:100C92002D08F3002C08F2002B08F1002A08F000BE
:100CA2002608AE002708AF002808B0002908B100C6
:100CB20006300310AE0DAF0DB00DB10DFF3E031D9A
:100CC2005A2E0030B2001230B3007A30B400003035
:100CD200B5002E08B2022F08031C2F0F712E722EA0
:100CE200B3023008031C300F772E782EB40231087D
:100CF200031C310F7D2E7E2EB5023508F700340815
:100D0200F6003308F5003208F4000A128A110323B0
:100D12000A128A117108FA007008F90001307A0289
:100D2200003003197902031CF22E831203132608E2
:100D3200AA002708AB002808AC002908AD0004303F
:100D42000310AA0DAB0DAC0DAD0DFF3E031DA12E80
:100D52002D08F3002C08F2002B08F1002A08F000FD
:100D62002608AE002708AF002808B0002908B10005
:100D720004300310AE0DAF0DB00DB10DFF3E031DDB
:100D8200BA2E0030B2001230B3007A30B400003014
:100D9200B5002E08B2022F08031C2F0FD12ED22E1F
:100DA200B3023008031C300FD72ED82EB4023108FC
:100DB200031C310FDD2EDE2EB5023508F700340894
:100DC200F6003308F5003208F4000A128A110323F0
:100DD2000A128A117108FA007008F90083160313C7
:100DE200181501307A02003003197902031808003D
:100DF20079088316031399001812831203139817A4
:100E02008316031387170717831203131816831603
:100E120003139816080083120313AB002130A300BA
:100E22002308A6000130A007FF30200784000A1221
:100E32008A110D200A128A11A3002308AC002C0883
:100E42000319DF2F25302C060319332F2C08A3009A
:100E52002B0884002308831380000130A300230899
:100E6200AB07132FA7010130A007FF302007840032
:100E72000A128A110D200A128A11AC00A300A401E1
:100E82002408003A0319462F132F2308003A0319A6
:100E9200DF2F643A0319512F0D3A0319512F132FE3
:100EA2002608840083130008A900840A0008AA0007
:100EB2000230A3002308A607AA1F682F0330A3004D
:100EC2002308A704A909AA09A90A0319AA0AAC01B5
:100ED200AC0A2C08A3002307233E84000A128A11BD
:100EE2000D200A128A11A4000A128A110D200A1278
:100EF2008A11A50025082A02031D812F2408290230
:100F0200031C8B2F0130A3002308AC0705302C06ED
:100F1200031D6A2F2708033903199A2F2D30A300C6
:100F22002B0884002308831380000130A3002308C8
:100F3200AB072C08A3002308A800FF30A300230856
:100F4200A807280A0319132F0A30F8000030F90005
:100F52002808A3002307233E84000A128A110D20C9
:100F62000A128A11F0000A128A110D200A128A113D
:100F7200F1002A08F3002908F2000A128A119B21C3
:100F82000A128A117108FB007008FA000A128A110B
:100F920030210A128A117808303E83120313A4000A
:100FA2002408AC002C08A3002B0884002308831318
:100FB20080000130A3002308AB079E2F2B0884007A
:100FC2008313800108000A128A15D3270A128A1194
:100FD200CF000A128A15D4270A128A11D0000A12E7
:100FE2008A15D527D100C701C801C901CA01CB01A1
:0E0FF200CC01CD01CE0183010A128A11852D9A
:101FA600303400343034F030831603138500831246
:101FB600031385010800F00083160313981CDF2F16
:101FC60070088312031399000800923083120313DA
:101FD600AF002F08A0002E08A2002D08A100303067
:101FE6000A128A110C270A128A153030F5000030C1
:0A1FF600F6000A128A11D721080034
:04400E00F2EFFFFFCF
:00000001FF
