:020000040000FA
:100000000A128A11E12FFF1B0D2883137F18831713
:100010000008840A0319FF0A080000308A00040857
:10002000840A8207003441340034313400343234DD
:100030000034333400344234003434340034353442
:100040000034363400344334003437340034383428
:10005000003439340034443400342A340034303429
:10006000003423340034FF340034013400340A34C3
:10007000003464340034E834033410342734433417
:100080006F346E346634693467342D3469347A34AD
:1000900071347534693465347234643461343A349B
:1000A0002034003443346F346E346634693467343A
:1000B0002D346434653472346534633468346134A7
:1000C0003A34203400344434693472343A342034BD
:1000D00041346E347434693448346F34723461346A
:1000E000723469346F3400344434693472343A34CD
:1000F000203448346F3472346134723469346F346C
:100100000034203443346D342034643465343A345C
:1001100020340034203443346D34003425346434C6
:020120000034A9
:1002D20030340034303483120313871007100800BF
:1002E20000300A128A11CA210A128A1101300A1236
:1002F2008A11CA2108008312031342084304031916
:100302000800440845040319080007148710080070
:1003120083160317880189010130831603138600AF
:100322008701F030850083120313850108007C30B9
:1003320083120313AF002F08A0002E08A2002D087D
:10034200A10030300A128A1109270A128A113030AC
:10035200F5000030F6000A128A11AC220800F00003
:10036200701CB729831203130616BA2983120313CA
:100372000612F01CBE298616BF298612701DC329DB
:100382000617C4290613F01DC8298617080086130C
:100392000800F30083120313061173080A128A116C
:1003A200B0210A128A118312031386150B30F20050
:1003B2006230F100F10BDB29F20BDB290000831222
:1003C200031386110800F401F501701CEE2972086E
:1003D200F4070318F50A7308F50701300310F20D4C
:1003E200F30DFF3E031DEF2901300310F10CF00C59
:1003F200FF3E031DF62970087104031DE6297508E6
:10040200F1007408F0000800780879040319322A10
:10041200FD01FD0AF91B192A01300310F80DF90D2F
:10042200FF3E031D0E2A0130FC007C08FD070B2A4B
:1004320079087B02031D1F2A78087A02031C272AE7
:100442007808FA027908031CFB03FB02013003104F
:10045200F90CF80CFF3E031D282A0130FD02031D92
:10046200192A7B08F9007A08F8000800F4007408D9
:100472000F39F1007108F2007408F039F1007108C7
:10048200F3008312031306157308F10004300310FE
:10049200F10CFF3E031D482A71080A128A11B0218D
:1004A2000A128A118312031386151A30F100F10B16
:1004B200582A000083120313861172080A128A1145
:1004C200B0210A128A118312031386151A30F10021
:1004D200F10B692A00008312031386110800F5014B
:1004E200F601700871040319A72AF701F70AF11B34
:1004F200862A01300310F00DF10DFF3E031D7B2A09
:100502000130F4007408F707782A01300310F50D62
:10051200F60DFF3E031D872A71087302031D932AFD
:1005220070087202031C9C2A7008F2027108031CF4
:10053200F303F302751401300310F10CF00CFF3ECB
:10054200031D9D2A0130F702031D862A7608F10059
:100552007508F0000800FA01FB017A087507F80037
:100562007608F7000318F70AFA1BF7037708F90071
:10057200790883120313FF00780884000A128A1193
:1005820003200A128A11003A031908007A08750733
:10059200F8007608F7000318F70AFA1BF703770842
:1005A200F900790883120313FF00780884000A1205
:1005B2008A1103200A128A110A128A1137220A1298
:1005C2008A110130FA070318FB0A0030FB07AE2A32
:1005D20083120313071C102B4C08F1004B08F00088
:1005E2000030F200F3000A128A11E4210A128A1181
:1005F2007108803AF600831203134508803A7602A6
:10060200031D052B44087002031C102B83120313D5
:10061200CB01CC0101308706023087060800831225
:100622000313871C08004C08F1004B08F00000304F
:10063200F200F3000A128A11E4210A128A117108E7
:10064200803AF600831203134308803A7602031DB0
:100652002C2B42087002031C0800072BF7007703BB
:10066200031D542B74087F3EF5007508FA007A08C2
:10067200F50004300310F50CFF3E031D3B2B7508FB
:10068200F6007608F8007A080F39F5007508F900C7
:1006920078080A128A11CA210A128A1179080A12E2
:1006A2008A11CA21080002307706031D0800740867
:1006B200BF3EF5007508FA007A08F5000430031011
:1006C200F50CFF3E031D602B7508F6007608F80056
:1006D2007A080F39F5007508F90078080A128A11AC
:1006E200CA210A128A1179080A128A11CA2108003B
:1006F20000300A128A11B0210A128A113430F50030
:10070200F130F400F40B832BF50B832B882B033091
:100712000A128A11CA210A128A110D30F500FB3021
:10072200F400F40B922BF50B922B972B03300A1249
:100732008A11CA210A128A111D30F5009130F40083
:10074200F40BA12BF50BA12B03300A128A11CA213B
:100752000A128A1102300A128A11CA210A128A1155
:1007620002300A128A11CA210A128A1108300A12A8
:100772008A11CA210A128A1100300A128A11CA2168
:100782000A128A110C300A128A11CA210A128A111B
:1007920000300A128A11CA210A128A1106300A127C
:1007A2008A11CA2108000A128A1189210A128A11A1
:1007B2000A128A1179230A128A110A128A116C21E9
:1007C2000A128A110A128A1193250A128A110A122E
:1007D2008A114E260A128A110A128A115B240A12FF
:1007E2008A11700883120313BE003E08CF00213025
:1007F20084000A128A110D200A128A11BE000A12FE
:100802008A110D200A128A11BF004F08C000C101CF
:100812003F084106031D0F2C3E084006031D2A2CEB
:10082200402C0A128A1193250A128A11402C0A12AC
:100832008A114E260A128A11402C0A128A116C2140
:100842000A128A11402C0A128A117C210A128A1178
:10085200402C4F08BE00BF013F08003A0319322C5A
:10086200402C3E08413A0319122C033A0319182C62
:10087200013A03191E2C073A0319242C402C831227
:100882000313061C4D2C4608031D4D2C0A128A1117
:10089200EC240A128A11502C0618502CC60103307F
:1008A20083120313BF009730BE00BE0B562CBF0B42
:1008B200562CED2BF401F501F50A751C642C8312FC
:1008C20003130514672C8312031305107508F20035
:1008D20001300310F20CFF3E031D6A2C721C752CB2
:1008E200831203138514782C831203138510750861
:1008F200F20002300310F20CFF3E031D7B2C721C2F
:10090200862C831203130515892C831203130511F8
:100912007508F20003300310F20CFF3E031D8C2C0D
:10092200721C972C8312031385159A2C83120313BE
:1009320085110330F3009730F200F20B9E2CF30B7B
:100942009E2CA32C83120313051AC32C0130F20030
:100952007208F407851AC32C0130F2007208F407FA
:10096200051BC32C0130F2007208F407851BC32C4F
:100972000130F2007208F4070310F50D1030750211
:10098200031C5E2C0510851005118511740847069D
:100992000319DF2C7408F2007208C7007408F20011
:1009A2007207013E84000A128A110D200A128A116E
:1009B200F0000A128A110D20F10008002130840093
:1009C2000A128A110D200A128A11F0000A128A11E3
:1009D2000D20F100080083120313C601C60A01307C
:1009E200CB070318CC0A0030CC070A128A11E9227D
:1009F2000A128A1183120313071C492D0A128A1143
:100A020071210A128A11F401F40A01300A128A11C0
:100A12002F230A128A116230F5008030F6000A1282
:100A22008A11AC220A128A11F401F40A02300A1263
:100A32008A112F230A128A11831203134C08F10020
:100A42004B08F0000030F200F3000A128A11E42190
:100A52000A128A11710883120313AE007008AD00E6
:100A62000A128A1198210A128A116F30F500803019
:100A7200F6000A128A11AC220A128A118312031397
:100A82004508AE004408AD000A128A1198210800F8
:100A92000A128A1171210A128A11F401F40A013030
:100AA2000A128A112F230A128A115130F50080305E
:100AB200F6000A128A11AC220A128A11F401F40A0F
:100AC20002300A128A112F230A128A118312031387
:100AD2004C08F1004B08F0000030F200F3000A125B
:100AE2008A11E4210A128A11710883120313AE00DB
:100AF2007008AD000A128A1198210A128A116F3009
:100B0200F5008030F6000A128A11AC220A128A110C
:100B1200831203134308AE004208AD000A128A1181
:100B22009821080083120313C901CA010A128A110B
:100B32006C210A128A110A128A1171210A128A116F
:100B4200F401F40A01300A128A112F230A128A11BF
:100B52004030F5008030F6000A128A11AC220A12E7
:100B62008A110A128A115B240A128A1170088312EE
:100B72000313BA003A08CF00213084000A128A1106
:100B82000D200A128A11BA000A128A110D200A12C5
:100B92008A11BB004F08BC00BD013B083D06031D86
:100BA200D42D3A083C060319432E4F08BA00BB0164
:100BB2003A08CD003B08CE002A2ECB01CC014A08D0
:100BC200C5004908C4000A128A117C210A128A113E
:100BD2008312031344084504031D0800432E4A08E8
:100BE200F1004908F0000A30F2000030F3000A1266
:100BF2008A11E4210A128A11831203134D08700725
:100C0200C9004E0803184E0A7107CA00D030C9073E
:100C12000318CA0AFF30CA07F401F40A02300A12A2
:100C22008A112F230A128A11831203134A08AE0073
:100C32004908AD000A128A1198210A128A117830E5
:100C4200F5008030F6000A128A11AC220A128A11CB
:100C5200432E4E08003A03192F2EF02D4D08233A49
:100C62000319432E093A0319432E6B3A0319432EF3
:100C7200033A0319432E013A0319432E073A031983
:100C8200DE2DF02D033083120313BB009730BA0020
:100C9200BA0B492EBB0B492EB22D83120313C90185
:100CA200CA010A128A116C210A128A110A128A11C5
:100CB20071210A128A11F401F40A01300A128A110E
:100CC2002F230A128A112D30F5008030F6000A1205
:100CD2008A11AC220A128A110A128A115B240A12A0
:100CE2008A11700883120313BA003A08CF00213028
:100CF20084000A128A110D200A128A11BA000A12FD
:100D02008A110D200A128A11BB004F08BC00BD01D6
:100D12003B083D06031D8F2E3A083C060319FE2EA2
:100D22004F08BA00BB013A08CD003B08CE00E52EC1
:100D3200CB01CC014A08C3004908C2000A128A1139
:100D42007C210A128A118312031342084304031DF1
:100D52000800FE2E4A08F1004908F0000A30F200AD
:100D62000030F3000A128A11E4210A128A11831256
:100D720003134D087007C9004E0803184E0A710785
:100D8200CA00D030C9070318CA0AFF30CA07F401E3
:100D9200F40A02300A128A112F230A128A118312CC
:100DA20003134A08AE004908AD000A128A119821BD
:100DB2000A128A117830F5008030F6000A128A1180
:100DC200AC220A128A11FE2E4E08003A0319EA2EAC
:100DD200AB2E4D08233A0319FE2E093A0319FE2EB3
:100DE2006B3A0319FE2E033A0319FE2E013A031938
:100DF200FE2E073A0319992EAB2E033083120313EA
:100E0200BB009730BA00BA0B042FBB0B042F6D2E18
:100E120083120313AB002130A3002308A600013084
:100E2200A007FF30200784000A128A110D200A123F
:100E32008A11A3002308AC002C080319DC2F2530EB
:100E42002C060319302F2C08A3002B08840023083A
:100E5200831380000130A3002308AB07102FA701E2
:100E62000130A007FF30200784000A128A110D20EA
:100E72000A128A11AC00A300A4012408003A031943
:100E8200432F102F2308003A0319DC2F643A031969
:100E92004E2F0D3A03194E2F102F2608840083136C
:100EA2000008A900840A0008AA000230A30023084F
:100EB200A607AA1F652F0330A3002308A704A909C8
:100EC200AA09A90A0319AA0AAC01AC0A2C08A300B0
:100ED2002307233E84000A128A110D200A128A1166
:100EE200A4000A128A110D200A128A11A5002508EF
:100EF2002A02031D7E2F24082902031C882F013099
:100F0200A3002308AC0705302C06031D672F270812
:100F120003390319972F2D30A3002B0884002308CF
:100F2200831380000130A3002308AB072C08A30021
:100F32002308A800FF30A3002308A807280A0319E2
:100F4200102F0A30F8000030F9002808A300230708
:100F5200233E84000A128A110D200A128A11F0001F
:100F62000A128A110D200A128A11F1002A08F300CE
:100F72002908F2000A128A1170220A128A117108D3
:100F8200FB007008FA000A128A1105220A128A115D
:100F92007808303E83120313A4002408AC002C0806
:100FA200A3002B0884002308831380000130A300D0
:100FB2002308AB079B2F2B088400831380010800B2
:100FC2000A128A1169210A128A11CD000A128A11A3
:100FD2006A210A128A11CE000A128A116B21CF00ED
:100FE200C201C301C401C501C601C701C801C901CB
:0E0FF200CA01CB01CC0183010A128A11D42B53
:04400E00F2EFFFFFCF
:00000001FF
