:020000040000FA
:060000000A128A11DD2F37
:10000A003034003430348312031387100710080089
:10001A0083120313E501E6010A128A1108200A1263
:10002A008A110A128A1596200A128A11F401F40A10
:10003A0001300A128A153C220A128A113B30F50055
:10004A008030F6000A128A15FF210A128A11F40179
:10005A00F40A02300A128A153C220A128A11623004
:10006A007C28E501E6011628E001E1016608DF00C7
:10007A006508DE000A128A15A1200A128A11831263
:10008A0003135E085F04031D080084286608F10054
:10009A006508F0000A30F2000030F3000A128A15EF
:1000AA0014210A128A118312031367087007E500E4
:1000BA0068080318680A7107E600D030E5070318D4
:1000CA00E60AFF30E607F401F40A02300A128A153A
:1000DA003C220A128A11831203136608C6006508B5
:1000EA00C5000A128A15AE200A128A116330F50079
:1000FA008030F6000A128A15FF210A128A110A12A2
:10010A008A15B5230A128A11700883120313D200C2
:10011A005208E900213084000A128A150A200A12BC
:10012A008A11D2000A128A150A200A128A11D300E9
:10013A006908D400D50153085506031DA62852089C
:10014A005406031984286908D200D3015208E7002B
:10015A005308E8006808003A0319B4284B286708CE
:10016A00233A0319C828093A0319C8286B3A03190C
:10017A003628033A0319C828013A0319C828073A46
:10018A00031939284B28842883120313E401E40A4B
:10019A000130E0070318E10A0030E1070A128A1564
:1001AA007E250A128A110430831203138706600817
:1001BA00F0006108F1000030F11BFF30F200F3009B
:1001CA0001300A128A15DB240A128A117308831273
:1001DA000313A7007208A6007108A5007008A400FE
:1001EA003F30A3007830A2005130A100EC30A000CB
:1001FA000A128A11C8240A128A11831203132308C5
:10020A00BD002208BC002108BB002008BA000A125F
:10021A008A1548230A128A11831203133B08DB004A
:10022A003A08DA00071C9E295908803AD2005B086E
:10023A00803A5202031D23295A08580203189E299C
:10024A00831203135A08F0005B08F1000030F11B17
:10025A00FF30F200F30001300A128A15DB240A1279
:10026A008A11730883120313A7007208A600710883
:10027A00A5007008A4003F30A3006630A2006630D3
:10028A00A1006630A0000A128A1199220A128A1164
:10029A00831203132308BD002208BC002108BB00F7
:1002AA002008BA000A128A1548230A128A118312F0
:1002BA0003133B08D9003A08D8000A128A15962077
:1002CA000A128A11F401F40A01300A128A153C2230
:1002DA000A128A112D30F5008030F6000A128A15AA
:1002EA00FF210A128A11F401F40A02300A128A154D
:1002FA003C220A128A11831203135B08C6005A08A9
:10030A00C5000A128A15AE200A128A115130F50068
:10031A008030F6000A128A15FF210A128A11831206
:10032A0003135F08C6005E08C5000A128A15AE20CC
:10033A00080083120313871C08005908803AD20068
:10034A005B08803A5202031DAC295A085802031866
:10035A000800831203135A08F0005B08F10000300A
:10036A00F11BFF30F200F30001300A128A15DB2478
:10037A000A128A11730883120313A7007208A600CF
:10038A007108A5007008A4003F30A3006630A200DF
:10039A006630A1006630A0000A128A1199220A1258
:1003AA008A11831203132308BD002208BC00210806
:1003BA00BB002008BA000A128A1548230A128A11B9
:1003CA00831203133B08D9003A08D8006008F000EA
:1003DA006108F1000030F11BFF30F200F300013038
:1003EA000A128A15DB240A128A117308831203136C
:1003FA00A7007208A6007108A5007008A4003F3083
:10040A00A3007830A2005130A100EC30A0000A12FB
:10041A008A11C8240A128A11831203132308BD0001
:10042A002208BC002108BB002008BA000A128A155B
:10043A0048230A128A11831203133B08DB003A0885
:10044A00DA000A128A1596200A128A11F401F40AAD
:10045A0001300A128A153C220A128A114630F50026
:10046A008030F6000A128A15FF210A128A11F40155
:10047A00F40A02300A128A153C220A128A118312DD
:10048A0003136008F0006108F1000030F11BFF302F
:10049A00F200F30001300A128A15DB240A128A11CB
:1004AA00730883120313A7007208A6007108A50037
:1004BA007008A4003F30A3007830A2005130A10098
:1004CA00EC30A0000A128A11C8240A128A11831277
:1004DA0003132308BD002208BC002108BB00200822
:1004EA00BA000A128A1548230A128A1183120313C0
:1004FA003B08C6003A08C5000A128A15AE200A123D
:10050A008A115130F5008030F6000A128A15FF214F
:10051A000A128A11831203135D08C6005C08C5001B
:10052A000A128A15AE2008008312031323088039A1
:10053A00A8002808B0002308A8002807A90029084D
:10054A00B200A21B321432080319B92A320A031D57
:10055A00B62A0030A3000030A2000030A10000300B
:10056A00A000A217A301C12A0030A3000030A200F4
:10057A000030A1000030A00027088039A800280810
:10058A00B10031083006031D30172708A8002807D4
:10059A00A9002908B100A61B311431080319E32A5E
:1005AA00310A031DE02A0030A7000030A6000030FF
:1005BA00A5000030A400A617A701EB2A0030A70067
:1005CA000030A6000030A5000030A4003208310235
:1005DA000318312B301FF52A8030A8002808B006EE
:1005EA003208A8002808B3003108A8002808B20079
:1005FA003308A8002808B1002008A8002808B3007A
:10060A002408A8002808A0003308A8002808A40085
:10061A002108A8002808B3002508A8002808A10076
:10062A003308A8002808A5002208A8002808B30053
:10063A002608A8002808A2003308A8002808A6004F
:10064A002308A8002808B3002708A8002808A30040
:10065A003308A8002808A700B3013108A800A90197
:10066A002908AB0032082802AA00031CAB032B0896
:10067A00803AFF0080307F02031D452B1A302A0280
:10068A00031C7E2B83120313230822042104200453
:10069A000319512B0130522B0030A8002808B3004F
:1006AA000030A3000030A2000030A1000030A000FA
:1006BA003108A8002808B200842B331C6D2B33089C
:1006CA00A8000310280C0138A9002908B3006F2BD1
:1006DA000310B30C2018B3170130A800230DA30C84
:1006EA00A20CA10CA00CA80B732B0130A80028089F
:1006FA00B2078312031331083202031C622B301B28
:10070A00C52B3208031D922B0030A3000030A20033
:10071A000030A1000030A00008002408A007250826
:10072A0003110318013E031DA1072608031103182C
:10073A00013E031DA207270803110318013E031DEA
:10074A00A307231C672C331CB32B3308A800031000
:10075A00280C0138A9002908B300B52B0310B30CE3
:10076A002018B3170130A800230DA30CA20CA10C6A
:10077A00A00CA80BB92B0130A8002808B207672CD7
:10078A002308803AFF002708803A7F02031DD72BEF
:10079A0026082202031DD72B25082102031DD72B69
:1007AA002408200203182F2CFF30A800FF30A900CC
:1007BA00FF30AA00FF30AB002408AC002508AD00CA
:1007CA002608AE002708AF002008AC022108031C47
:1007DA00210FF02BF12BAD022208031C220FF62B5E
:1007EA00F72BAE022308031C230FFC2BFD2BAF02B1
:1007FA002C08A8072D0803182D0F042C052CA9076F
:10080A002E0803182E0F0A2C0B2CAA072F080318E0
:10081A002F0AAB072B08A3002A08A2002908A10067
:10082A002808A0008030A8002808B006B309B30A37
:10083A003308031D3D2C0130A00700300318013096
:10084A00A107003003180130A20700300318013055
:10085A00A3073D2C2408A0022508031C250FA1028A
:10086A002608031C260FA2022708031C270FA3022F
:10087A002308220421042004031D652C3308031DC8
:10088A00652C0030A3000030A2000030A100003027
:10089A00A00008000130A8000310A00DA10DA20DB0
:1008AA00A30DA80B512CB31B2014331C5E2C03146C
:1008BA005F2C0310B30D32080319652C0130B20204
:1008CA00A21F4F2CB101B31F722C33087F390319B1
:1008DA002018702C722CB101B10A31080319A52C09
:1008EA000130A007003003180130A10700300318B7
:1008FA000130A207003003180130A307231CA52CDE
:10090A002008A8002108A9002208AA002308AB0091
:10091A000130AC002B0DAB0CAA0CA90CA80CAC0B2B
:10092A008F2C2B08A3002A08A2002908A100280856
:10093A00A000320A0319A52C0130A8002808B20722
:10094A00320A031D3208031DB52C0030A300003003
:10095A00A2000030A1000030A00032080319B00143
:10096A00321CB92CA217BD2C7F30A8002808A2057A
:10097A003208A8000310280CA9002908A300B01FF8
:10098A000800A31708008312031323088039A8005C
:10099A002808AD002308A8002807A9002908B300E1
:1009AA00A21B331433080319E72C330A031DE52C61
:1009BA000030A3000030A2000030A1000030A000E7
:1009CA00A217EF2C0030A3000030A2000030A100D3
:1009DA000030A00027088039A8002808AD0627089B
:1009EA00A8002807A9002908B200A61B3214320859
:1009FA0003190C2D320A031D0A2D0030A7000030FE
:100A0A00A6000030A5000030A400A617142D00305F
:100A1A00A7000030A6000030A5000030A40032086C
:100A2A00031D3308031D222D0030A3000030A2004D
:100A3A000030A1000030A00008002008A800280803
:100A4A00F00026080A128A1535210A128A1171083D
:100A5A0083120313B9007008B8003808A800A90166
:100A6A00AA01AB012B08B1002A08B0002908AF007F
:100A7A002808AE003908A800A901AA01AB012B0871
:100A8A00B7002A08B6002908B5002808B4002108CA
:100A9A00A8002808F00025080A128A1535210A122A
:100AAA008A11710883120313B9007008B800380854
:100ABA00A800A901AA01AB012808AE072908031159
:100ACA000318013E031DAF072A0803110318013E4C
:100ADA00031DB0072B0803110318013E031DB107BC
:100AEA003908A800A901AA01AB012808B4072908F6
:100AFA0003110318013E031DB5072A080311031841
:100B0A00013E031DB6072B0803110318013E031DFE
:100B1A00B7072208A8002808F00024080A128A1534
:100B2A0035210A128A11710883120313B900700859
:100B3A00B8003808A800A901AA01AB012808AE0725
:100B4A00290803110318013E031DAF072A080311E0
:100B5A000318013E031DB0072B0803110318013EB9
:100B6A00031DB1073908A800A901AA01AB01280889
:100B7A00B407290803110318013E031DB5072A0803
:100B8A0003110318013E031DB6072B0803110318AE
:100B9A00013E031DB7070830A8000310AE0DAF0DC4
:100BAA00B00DB10DA80BD22D2108A8002808F0001D
:100BBA0024080A128A1535210A128A117108831229
:100BCA000313B9007008B8003808A8003908A9004A
:100BDA00AA01AB012808AE07290803110318013E30
:100BEA00031DAF072A0803110318013E031DB007AE
:100BFA002B0803110318013E031DB1072008A800A2
:100C0A002808F00025080A128A1535210A128A11C5
:100C1A00710883120313B9007008B8003808A800D5
:100C2A003908A900AA01AB012808AE07290803114F
:100C3A000318013E031DAF072A0803110318013EDA
:100C4A00031DB0072B0803110318013E031DB1074A
:100C5A000830A8000310AE0DAF0DB00DB10DA80BF2
:100C6A002F2E2008A8002808F00024080A128A1546
:100C7A0035210A128A11710883120313B900700808
:100C8A00B8003808A8003908A900AA01AB01280849
:100C9A00AE07290803110318013E031DAF072A08EE
:100CAA0003110318013E031DB0072B080311031893
:100CBA00013E031DB1072108A8002808F0002608F4
:100CCA000A128A1535210A128A117108831203132E
:100CDA00B9007008B8003808A8003908A900AA01A4
:100CEA00AB012808B407290803110318013E031DA4
:100CFA00B5072A0803110318013E031DB6072B087E
:100D0A0003110318013E031DB7072208A80028088B
:100D1A00F00025080A128A1535210A128A1171086B
:100D2A0083120313B9007008B8003808A8003908FC
:100D3A00A900AA01AB012808B4072908031103185E
:100D4A00013E031DB5072A0803110318013E031DBE
:100D5A00B6072B0803110318013E031DB707220823
:100D6A00A8002808F00026080A128A1535210A1256
:100D7A008A11710883120313B9007008B800380881
:100D8A00A8003908A900AA01AB0108300310A80D70
:100D9A00A90DAA0DAB0DFF3E031DCB2E2808B407E3
:100DAA00290803110318013E031DB5072A08031178
:100DBA000318013E031DB6072B0803110318013E51
:100DCA00031DB7072E08A8002F08A9003008AA009B
:100DDA003108AB0018300310AB0CAA0CA90CA80CF4
:100DEA00FF3E031DF02E2808B40729080311031833
:100DFA00013E031DB5072A0803110318013E031D0E
:100E0A00B6072B0803110318013E031DB707083064
:100E1A00A8000310AE0DAF0DB00DB10DA80B0E2F2B
:100E2A0033083207A800A901A90D2808823EB80094
:100E3A0029080318013EFF3EB900B61B3F2F0130B7
:100E4A00A8000310B40DB50DB60DB70DA80B262FCB
:100E5A00B11B34140130A8000310AE0DAF0DB00D54
:100E6A00B10DA80B312FFF30B8070318B90AFF30AC
:100E7A00B907222FB201B11F582FFF302E05A80043
:100E8A00FF302F05A900FF303005AA007F30310559
:100E9A00AB002B082A042904280403193418562FF6
:100EAA00582FB201B20A320803198A2F0130B40747
:100EBA00003003180130B507003003180130B607B7
:100ECA00003003180130B707371C8A2F3408A800EE
:100EDA003508A9003608AA003708AB000130AC0073
:100EEA002B0DAB0CAA0CA90CA80CAC0B752F2B085C
:100EFA00B7002A08B6002908B5002808B40001304E
:100F0A00B8070318B90A0030B9073908803AFF0050
:100F1A0080307F02031D932FFF303802031CA02F5D
:100F2A007F3083120313B7008030B6000030B5005B
:100F3A000030B400D02F831203133908803AFF001F
:100F4A0080307F02031DAB2F013038020318B92FFE
:100F5A00003083120313B7000030B6000030B5002A
:100F6A000030B400AD01D02F831203133808A80053
:100F7A002808B300FF30B405FF30B5057F30B60549
:100F8A000030B7053318B6173308A8000310280C29
:100F9A00A9002908B7002D08A8002808B7043708AF
:100FAA00A3003608A2003508A1003408A0000800F2
:100FBA000A128A1105200A128A11E7000A128A11F6
:100FCA0006200A128A11E8000A128A110720E9008B
:100FDA00D801D901DA01DB01DC01DD01DE01DF0123
:100FEA00E001E101E201E301E401E501E601830137
:100FFA000A128A15E12AFF1B0A2883137F1883170E
:10100A000008840A0319FF0A080008308A00040845
:10101A00840A8207003441340034313400343234D3
:10102A000034333400344234003434340034353438
:10103A00003436340034433400343734003438341E
:10104A00003439340034443400342A34003430341F
:10105A00003423340034FF340034013400340A34B9
:10106A00003464340034E83403341034273444340C
:10107A00693472343A3420344134643465346C341B
:10108A0061346E3474346534003441346434653404
:10109A006C3461346E34743465343A342034003438
:1010AA004434693472343A342034413474347234F6
:1010BA00613473340034203443346D34203464345E
:1010CA0065343A342034003441347434723461342F
:1010DA0073343A34203400343034203443346D3499
:0810EA000034253464340034A5
:10112C0000300A128A15FA200A128A1501300A12A6
:10113C008A15FA200800831203135C085D04031956
:10114C0008005E085F0403190800071487100800E4
:10115C00673083120313C7004708A0004608A2009B
:10116C004508A10048300A128A1532260A128A153F
:10117C004830F5000030F6000A128A15FF210800ED
:10118C007030831603138F040F109001831603170E
:10119C0088018901013083160313860087018312AD
:1011AC0003138701E830831603138500831203139E
:1011BC0085010800F000701CE728831203138617C2
:1011CC00EA28831203138613F01CEE280616EF2868
:1011DC000612701DF3280617F4280613F01DF828C4
:1011EC008616080086120800F300831203130611FA
:1011FC0073080A128A15E0200A128A158312031347
:10120C0086150B30F2006230F100F10B0B29F20B5A
:10121C000B2900008312031386110800F401F50159
:10122C00701C1E297208F4070318F50A7308F507D9
:10123C0001300310F20DF30DFF3E031D1F29013089
:10124C000310F10CF00CFF3E031D262970087104ED
:10125C00031D16297508F1007408F0000800F80049
:10126C00F401F5017008F200F3017208F60073083E
:10127C00F700781C47297608F4070318F50A770855
:10128C00F50701300310F60DF70DFF3E031D48293D
:10129C000310F80C7808031D3F297508F100740839
:1012AC00F00008007808790403198529FD01FD0A6E
:1012BC00F91B6C2901300310F80DF90DFF3E031DCD
:1012CC0061290130FC007C08FD075E2979087B024E
:1012DC00031D722978087A02031C7A297808FA020D
:1012EC007908031CFB03FB0201300310F90CF80C0A
:1012FC00FF3E031D7B290130FD02031D6C297B0879
:10130C00F9007A08F8000800F40074080F39F100AD
:10131C007108F2007408F039F1007108F3008312BF
:10132C00031306157308F10004300310F10CFF3E93
:10133C00031D9B2971080A128A15E0200A128A15CE
:10134C008312031386151A30F100F10BAB29000040
:10135C0083120313861172080A128A15E0200A12EE
:10136C008A158312031386151A30F100F10BBC2970
:10137C0000008312031386110800F501F6017008B2
:10138C0071040319FA29F701F70AF11BD929013065
:10139C000310F00DF10DFF3E031DCE290130F400BA
:1013AC007408F707CB2901300310F50DF60DFF3E3D
:1013BC00031DDA2971087302031DE62970087202F5
:1013CC00031CEF297008F2027108031CF303F302EB
:1013DC00751401300310F10CF00CFF3E031DF029C5
:1013EC000130F702031DD9297608F1007508F000C9
:1013FC000800FA01FB017A087507F8007608F70077
:10140C000318F70AFA1BF7037708F9007908831217
:10141C000313FF00780884000A128A1500200A12B0
:10142C008A15003A031908007A087507F80076083F
:10143C00F7000318F70AFA1BF7037708F900790885
:10144C0083120313FF00780884000A128A15002007
:10145C000A128A150A128A158A210A128A15013073
:10146C00FA070318FB0A0030FB07012AF700770381
:10147C00031D612A74087F3EF5007508FA007A088E
:10148C00F50004300310F50CFF3E031D482A7508C7
:10149C00F6007608F8007A080F39F5007508F9009F
:1014AC0078080A128A15FA200A128A1579080A1283
:1014BC008A15FA20080002307706031D080074080C
:1014CC00BF3EF5007508FA007A08F50004300310E9
:1014DC00F50CFF3E031D6D2A7508F6007608F80022
:1014EC007A080F39F5007508F90078080A128A1580
:1014FC00FA200A128A1579080A128A15FA200800AD
:10150C0000300A128A15E0200A128A153430F500D0
:10151C00F130F400F40B902AF50B902A952A033045
:10152C000A128A15FA200A128A150D30F500FB30C2
:10153C00F400F40B9F2AF50B9F2AA42A03300A12FD
:10154C008A15FA200A128A151D30F5009130F40024
:10155C00F40BAE2AF50BAE2A03300A128A15FA20C8
:10156C000A128A1502300A128A15FA200A128A15F2
:10157C0002300A128A15FA200A128A1508300A1249
:10158C008A15FA200A128A1500300A128A15FA20D6
:10159C000A128A150C300A128A15FA200A128A15B8
:1015AC0000300A128A15FA200A128A1506300A121D
:1015BC008A15FA2008000A128A15C6200A128A1502
:1015CC000A128A1586220A128A150A128A11082012
:1015DC000A128A150A128A110D200A128A150A1289
:1015EC008A150A270A128A150A128A15B5230A12B5
:1015FC008A15700883120313D6005608E900690A8D
:10160C00031D212B372B0A128A110D200A128A1561
:10161C00372B0A128A150A270A128A15372B0A1237
:10162C008A1108200A128A15372B0A128A15A12052
:10163C000A128A15372B6908D600D7015708003AC9
:10164C000319292B372B5608413A0319092B033A56
:10165C0003190F2B013A0319152B073A03191B2BEE
:10166C00372B83120313061C442B6408031D442BD5
:10167C000A128A11C9200A128A15FA2A0618FA2A9D
:10168C00E401FA2A0310831203133C0D3D0DBE0036
:10169C003E08C4004408031D5C2B0030BD00003024
:1016AC00BC000030BB000030BA0008003A08BE0095
:1016BC003B08BF003C08C0003D08C1001F300310B0
:1016CC00C10CC00CBF0CBE0CFF3E031D652B3E08AD
:1016DC00C2004208C300BC17FF30BA05FF30BB057F
:1016EC00FF30BC050030BD059630C402C41F932BDF
:1016FC004408803A973E031C532B01300310BD0C59
:10170C00BC0CBB0CBA0CFF3E031D842B0130BE007D
:10171C003E08C4070319A62B832B20304402031860
:10172C00532B44080319A62B0130BE000310BA0D2D
:10173C00BB0DBC0DBD0DBE0B9C2B0130C402972BF9
:10174C00430803190800BA09BB09BC09BD09BA0A48
:10175C000319BB0A0319BC0A0319BD0A0800F401DA
:10176C00F501F50A751CBE2B831203130514C12B4E
:10177C008312031305107508F20001300310F20CEC
:10178C00FF3E031DC42B721CCF2B83120313851435
:10179C00D22B8312031385107508F200023003104C
:1017AC00F20CFF3E031DD52B721CE02B831203138E
:1017BC000515E32B8312031305117508F200033092
:1017CC000310F20CFF3E031DE62B721CF12B83124F
:1017DC0003130516F42B8312031305120330F300C5
:1017EC009730F200F20BF82BF30BF82BFD2B831236
:1017FC00031385191D2C0130F2007208F407851AA9
:10180C001D2C0130F2007208F407851B1D2C0130D1
:10181C00F2007208F407051B1D2C0130F20072084F
:10182C00F4070310F50D10307502031CB82B0510CE
:10183C00851005110512740862060319392C7408F9
:10184C00F2007208E2007408F2007207013E840094
:10185C000A128A150A200A128A15F0000A128A1531
:10186C000A20F1000800213084000A128A150A208F
:10187C000A128A15F0000A128A150A20F1000800D3
:10188C000030831203133A05C20000303B05C3003D
:10189C0080303C05C4007F303D05C500450844043C
:1018AC0043044204031D622C0030BD000030BC0018
:1018BC000030BB000030BA0000303E05C2000030E2
:1018CC003F05C30080304005C4007F304105C50092
:1018DC004508440443044204031D7C2C0030C10021
:1018EC000030C0000030BF000030BE00BD1FA22C75
:1018FC000030C2000030C3000030C4008030C5008E
:10190C003A08C2023B08031C3B0F8D2C8E2CC302E1
:10191C003C08031C3C0F932C942CC4023D08031C64
:10192C003D0F992C9A2CC5024508BD004408BC00FB
:10193C004308BB004208BA00C11FC82C0030C200CB
:10194C000030C3000030C4008030C5003E08C20225
:10195C003F08031C3F0FB32CB42CC3024008031CDC
:10196C00400FB92CBA2CC4024108031C410FBF2CE8
:10197C00C02CC5024508C1004408C0004308BF0084
:10198C004208BE008030BD068030C10641083D02D1
:10199C00031D080040083C02031D08003F083B02E1
:1019AC00031D08003E083A020800F8007808031DE1
:1019BC00F31FF02C7009FA007109FB007209FC008E
:1019CC007309FD00FA0A0319FB0A0319FC0A03192F
:1019DC00FD0AF82C7308FD007208FC007108FB006E
:1019EC007008FA007308720471047004031D072D4B
:1019FC000030F3000030F2000030F1000030F00055
:101A0C0008009630F4007408F900FE307D050319C7
:101A1C00382D0130F4007408F90701300310FD0C67
:101A2C00FC0CFB0CFA0CFF3E031D142D0B2D01308E
:101A3C00F4007408F9070130FA070030031801307C
:101A4C00FB07003003180130FC070030031801308D
:101A5C00FD0701300310FD0CFC0CFB0CFA0CFF3ED7
:101A6C00031D302DFF307D0503194C2D1D2D02302B
:101A7C007902031C4E2D0130F9020130F4000310E1
:101A8C00FA0DFB0DFC0DFD0DF40B452DFC1F3D2D32
:101A9C007918582DFF30FA05FF30FB057F30FC0517
:101AAC00FF30FD050310F90C7908F400F501F6017F
:101ABC00F70118300310F40DF50DF60DF70DFF3E80
:101ACC00031D602D7408FA047508FB047608FC04E9
:101ADC007708FD047808031DF31F752DFD177D088D
:101AEC00F3007C08F2007B08F1007A08F000080093
:101AFC0083120313071CDD2D3F30A3007830A200A6
:101B0C005130A100EC30A0006008F0006108F10039
:101B1C000030F11BFF30F200F30001300A128A157D
:101B2C00DB240A128A15730883120313A7007208A8
:101B3C00A6007108A5007008A4000A128A11C82416
:101B4C000A128A15831203132308BD002208BC0055
:101B5C002108BB002008BA005E08F0005F08F10005
:101B6C000030F11BFF30F200F30001300A128A152D
:101B7C00DB240A128A15730883120313C10072083E
:101B8C00C0007108BF007008BE000A128A154624F6
:101B9C000A128A15031CDD2D83120313E001E101E7
:101BAC000130870602308706D801D901080083125C
:101BBC000313871C08003F30A3007830A20051307B
:101BCC00A100EC30A0006008F0006108F1000030CA
:101BDC00F11BFF30F200F30001300A128A15DB24EE
:101BEC000A128A15730883120313A7007208A60041
:101BFC007108A5007008A4000A128A11C8240A12E0
:101C0C008A15831203132308BD002208BC00210887
:101C1C00BB002008BA005C08F0005D08F100003041
:101C2C00F11BFF30F200F30001300A128A15DB249D
:101C3C000A128A15730883120313C1007208C000BC
:101C4C007108BF007008BE000A128A1546240A12D9
:101C5C008A15031C0800D22D83120313AB0021300C
:101C6C00A3002308A6000130A007FF302007840042
:101C7C000A128A150A200A128A15A3002308AC003E
:101C8C002C080319052F25302C060319592E2C0866
:101C9C00A3002B0884002308831380000130A300C9
:101CAC002308AB07392EA7010130A007FF3020070E
:101CBC0084000A128A150A200A128A15AC00A300A5
:101CCC00A4012408003A03196C2E392E2308003A7B
:101CDC000319052F643A0319772E0D3A0319772E41
:101CEC00392E2608840083130008A900840A0008F2
:101CFC00AA000230A3002308A607AA1F8E2E0330C9
:101D0C00A3002308A704A909AA09A90A0319AA0A66
:101D1C00AC01AC0A2C08A3002307233E84000A1252
:101D2C008A150A200A128A15A4000A128A150A209A
:101D3C000A128A15A50025082A02031DA72E2408BD
:101D4C002902031CB12E0130A3002308AC07053077
:101D5C002C06031D902E270803390319C02E2D3095
:101D6C00A3002B0884002308831380000130A300F8
:101D7C002308AB072C08A3002308A800FF30A300FE
:101D8C002308A807280A0319392E0A30F800003056
:101D9C00F9002808A3002307233E84000A128A15A1
:101DAC000A200A128A15F0000A128A150A200A1251
:101DBC008A15F1002A08F3002908F2000A128A1584
:101DCC00C3210A128A157108FB007008FA000A1266
:101DDC008A1558210A128A157808303E831203138B
:101DEC00A4002408AC002C08A3002B0884002308B2
:101DFC00831380000130A3002308AB07C42E2B08EB
:101E0C00840083138001080083120313E501E601AB
:101E1C000A128A1108200A128A150A128A159620AB
:101E2C000A128A15F401F40A01300A128A153C22AE
:101E3C000A128A155A30F5008030F6000A128A15FB
:101E4C00FF210A128A15F401F40A02300A128A15CB
:101E5C003C220A128A156230F5008030F6000A1214
:101E6C008A15FF210A128A150A128A15B5230A123D
:101E7C008A15700883120313D2005208E90021302E
:101E8C0084000A128A150A200A128A15D2000A1234
:101E9C008A150A200A128A15D3006908D400D501C4
:101EAC0053085506031D5C2F520854060319F52FD1
:101EBC006908D200D3015208E7005308E800DC2F70
:101ECC00E501E6010A128A1596200A128A15F40118
:101EDC00F40A01300A128A153C220A128A155A3069
:101EEC00F5008030F6000A128A15FF210A128A15B5
:101EFC00F401F40A02300A128A153C220A128A15DD
:101F0C006230F5008030F6000A128A15FF210A12A1
:101F1C008A15F52FE001E1016608DD006508DC009B
:101F2C000A128A15A1200A128A15831203135C085F
:101F3C005D04031D0800F52F6608F1006508F0002C
:101F4C000A30F2000030F3000A128A1514210A122A
:101F5C008A158312031367087007E50068080318D5
:101F6C00680A7107E600D030E5070318E60AFF306F
:101F7C00E607F401F40A02300A128A153C220A120E
:101F8C008A15831203136608C6006508C5000A1279
:101F9C008A15AE200A128A156330F5008030F600DF
:101FAC000A128A15FF210A128A15F52F6808003AC1
:101FBC000319E12FA22F6708233A0319F52F093AC9
:101FCC000319F52F6B3A0319F52F033A0319662FF2
:101FDC00013A0319F52F073A0319902FA22F03305A
:101FEC0083120313D3009730D200D20BFB2FD30BE9
:041FFC00FB2F3A2F4E
:04400E00C4E3FFFF09
:00000001FF
