:020000040000FA
:060000000A128A11E92F2B
:1000080064008001840A04060319003404060528E4
:10001800831203135C085D04031908005E085F047B
:100028000319080007148710080083120313E60158
:10003800E7010A168A11AD260A128A110A168A11D0
:10004800B2260A128A11F401F40A01300A128A153A
:10005800DC200A128A113B30F5008030F6000A12C3
:100068008A159F200A128A11F401F40A02300A1232
:100078008A15DC200A128A1162308828E601E70115
:100088002228E001E1016708DF006608DE000A12A5
:100098008A110C200A128A11831203135E085F0466
:1000A800031D080090286708F1006608F0000A3070
:1000B800F2000030F3000A168A1109270A128A1181
:1000C8008312031368087007E60069080318690AB1
:1000D8007107E700D030E6070318E70AFF30E707A3
:1000E800F401F40A02300A128A15DC200A128A1175
:1000F800831203136708C6006608C5000A168A112A
:10010800BD260A128A116330F5008030F6000A1203
:100118008A159F200A128A110A128A15DF220A12EA
:100128008A11700883120313D2005208E4002130A8
:1001380084000A128A150A200A128A11D2000A12A9
:100148008A150A200A128A11D3006408D400D5013E
:1001580053085506031DB22852085406031990285F
:100168006408D200D3015208E8005308E90069087E
:10017800003A0319C02857286808233A0319D428D5
:10018800093A0319D4286B3A03194228033A031988
:10019800D428013A0319D428073A031945285728BF
:1001A800902883120313E501E50A0130E0070318DC
:1001B800E10A0030E1070A128A15A8240A128A11F6
:1001C80004308312031387066008F0006108F10009
:1001D8000030F11BFF30F200F30001300A128A15DB
:1001E80005240A128A11730883120313A7007208E0
:1001F800A6007108A5007008A4003F30A30078305D
:10020800A2005130A100EC30A0000A128A11D424B7
:100218000A128A11831203132308BD002208BC00A6
:100228002108BB002008BA000A128A15E3210A1225
:100238008A11831203133B08DB003A08DA00071C13
:10024800AA295908803AD2005B08803A5202031D55
:100258002F295A0858020318AA29831203135A0887
:10026800F0005B08F1000030F11BFF30F200F300F2
:1002780001300A128A1505240A128A11730883129A
:100288000313A7007208A6007108A5007008A4004F
:100298003F30A3006630A2006630A1006630A0009F
:1002A8000A128A11A5220A128A118312031323083B
:1002B800BD002208BC002108BB002008BA000A12B1
:1002C8008A15E3210A128A11831203133B08D90005
:1002D8003A08D8000A168A11B2260A128A11F401BD
:1002E800F40A01300A128A15DC200A128A112D300C
:1002F800F5008030F6000A128A159F200A128A112A
:10030800F401F40A02300A128A15DC200A128A1152
:10031800831203135B08C6005A08C5000A168A111F
:10032800BD260A128A115130F5008030F6000A12F3
:100338008A159F200A128A11831203135F08C600C8
:100348005E08C5000A168A11BD2608008312031329
:10035800871C08005908803AD2005B08803A52028C
:10036800031DB8295A0858020318080083120313FA
:100378005A08F0005B08F1000030F11BFF30F20072
:10038800F30001300A128A1505240A128A1173082B
:1003980083120313A7007208A6007108A50070084D
:1003A800A4003F30A3006630A2006630A10066308A
:1003B800A0000A128A11A5220A128A1183120313B5
:1003C8002308BD002208BC002108BB002008BA0091
:1003D8000A128A15E3210A128A11831203133B08B1
:1003E800D9003A08D8006008F0006108F100003030
:1003F800F11BFF30F200F30001300A128A150524C0
:100408000A128A11730883120313A7007208A60040
:100418007108A5007008A4003F30A3007830A2003E
:100428005130A100EC30A0000A128A11D4240A121B
:100438008A11831203132308BD002208BC00210877
:10044800BB002008BA000A128A15E3210A128A1191
:10045800831203133B08DB003A08DA000A168A11F4
:10046800B2260A128A11F401F40A01300A128A1516
:10047800DC200A128A114630F5008030F6000A1294
:100488008A159F200A128A11F401F40A02300A120E
:100498008A15DC200A128A11831203136008F000FF
:1004A8006108F1000030F11BFF30F200F300013069
:1004B8000A128A1505240A128A1173088312031373
:1004C800A7007208A6007108A5007008A4003F30B4
:1004D800A3007830A2005130A100EC30A0000A122D
:1004E8008A11D4240A128A11831203132308BD0027
:1004F8002208BC002108BB002008BA000A128A158D
:10050800E3210A128A11831203133B08C6003A0832
:10051800C5000A168A11BD260A128A115130F50043
:100528008030F6000A128A159F200A128A11831257
:1005380003135D08C6005C08C5000A168A11BD26AB
:1005480008008312031323088039A8002808B00084
:100558002308A8002807A9002908B200A21B321402
:1005680032080319C52A320A031DC22A0030A30023
:100578000030A2000030A1000030A000A217A301A3
:10058800CD2A0030A3000030A2000030A1000030C6
:10059800A00027088039A8002808B10031083006D3
:1005A800031D30172708A8002807A9002908B1004B
:1005B800A61B311431080319EF2A310A031DEC2A4E
:1005C8000030A7000030A6000030A5000030A400CD
:1005D800A617A701F72A0030A7000030A6000030B0
:1005E800A5000030A4003208310203183D2B301F4B
:1005F800012B8030A8002808B0063208A800280877
:10060800B3003108A8002808B2003308A800280859
:10061800B1002008A8002808B3002408A80028086A
:10062800A0003308A8002808A4002108A80028086A
:10063800B3002508A8002808A1003308A800280846
:10064800A5002208A8002808B3002608A800280842
:10065800A2003308A8002808A6002308A800280834
:10066800B3002708A8002808A3003308A800280812
:10067800A700B3013108A800A9012908AB00320876
:100688002802AA00031CAB032B08803AFF00803025
:100698007F02031D512B1A302A02031C8A2B831256
:1006A8000313230822042104200403195D2B0130BD
:1006B8005E2B0030A8002808B3000030A3000030EB
:1006C800A2000030A1000030A0003108A8002808CE
:1006D800B200902B331C792B3308A8000310280C88
:1006E8000138A9002908B3007B2B0310B30C20188C
:1006F800B3170130A800230DA30CA20CA10CA00C69
:10070800A80B7F2B0130A8002808B2078312031317
:1007180031083202031C6E2B301BD12B3208031D0B
:100728009E2B0030A3000030A2000030A100003052
:10073800A00008002408A007250803110318013E9B
:10074800031DA107260803110318013E031DA20774
:10075800270803110318013E031DA307231C732C4C
:10076800331CBF2B3308A8000310280C0138A9003C
:100778002908B300C12B0310B30C2018B31701309C
:10078800A800230DA30CA20CA10CA00CA80BC52B30
:100798000130A8002808B207732C2308803AFF000C
:1007A8002708803A7F02031DE32B26082202031D37
:1007B800E32B25082102031DE32B2408200203183C
:1007C8003B2CFF30A800FF30A900FF30AA00FF3003
:1007D800AB002408AC002508AD002608AE002708A9
:1007E800AF002008AC022108031C210FFC2BFD2BB5
:1007F800AD022208031C220F022C032CAE02230890
:10080800031C230F082C092CAF022C08A8072D085D
:1008180003182D0F102C112CA9072E0803182E0FC2
:10082800162C172CAA072F0803182F0AAB072B081A
:10083800A3002A08A2002908A1002808A0008030E7
:10084800A8002808B006B309B30A3308031D492CC9
:100858000130A007003003180130A1070030031849
:100868000130A207003003180130A307492C2408DF
:10087800A0022508031C250FA1022608031C260F29
:10088800A2022708031C270FA3022308220421041D
:100898002004031D712C3308031D712C0030A300A4
:1008A8000030A2000030A1000030A0000800013094
:1008B800A8000310A00DA10DA20DA30DA80B5D2C7F
:1008C800B31B2014331C6A2C03146B2C0310B30DB8
:1008D80032080319712C0130B202A21F5B2CB1013E
:1008E800B31F7E2C33087F39031920187C2C7E2CEB
:1008F800B101B10A31080319B12C0130A007003049
:1009080003180130A107003003180130A207003096
:1009180003180130A307231CB12C2008A8002108C4
:10092800A9002208AA002308AB000130AC002B0D57
:10093800AB0CAA0CA90CA80CAC0B9B2C2B08A30085
:100948002A08A2002908A1002808A000320A0319D1
:10095800B12C0130A8002808B207320A031D32085A
:10096800031DC12C0030A3000030A2000030A100FC
:100978000030A00032080319B001321CC52CA217A0
:10098800C92C7F30A8002808A2053208A800031047
:10099800280CA9002908A300B01F0800A317080005
:1009A8008312031323088039A8002808AD00230800
:1009B800A8002807A9002908B300A21B331433088C
:1009C8000319F32C330A031DF12C0030A300003067
:1009D800A2000030A1000030A000A217FB2C0030BC
:1009E800A3000030A2000030A1000030A0002708BA
:1009F8008039A8002808AD062708A8002807A900FC
:100A08002908B200A61B321432080319182D320A1D
:100A1800031D162D0030A7000030A6000030A500E9
:100A28000030A400A617202D0030A7000030A60033
:100A38000030A5000030A4003208031D3308031D50
:100A48002E2D0030A3000030A2000030A10000309D
:100A5800A00008002008A8002808F00026080A12AC
:100A68008A157C200A128A11710883120313B900AF
:100A78007008B8003808A800A901AA01AB012B0822
:100A8800B1002A08B0002908AF002808AE003908CC
:100A9800A800A901AA01AB012B08B7002A08B600D3
:100AA8002908B5002808B4002108A8002808F00083
:100AB80025080A128A157C200A128A1171088312E5
:100AC8000313B9007008B8003808A800A901AA01E2
:100AD800AB012808AE07290803110318013E031DBE
:100AE800AF072A0803110318013E031DB0072B089E
:100AF80003110318013E031DB1073908A800A90115
:100B0800AA01AB012808B407290803110318013EFC
:100B1800031DB5072A0803110318013E031DB60774
:100B28002B0803110318013E031DB7072208A8006C
:100B38002808F00024080A128A157C200A128A1153
:100B4800710883120313B9007008B8003808A800A8
:100B5800A901AA01AB012808AE0729080311031847
:100B6800013E031DAF072A0803110318013E031DA8
:100B7800B0072B0803110318013E031DB1073908FC
:100B8800A800A901AA01AB012808B4072908031184
:100B98000318013E031DB5072A0803110318013E77
:100BA800031DB6072B0803110318013E031DB707E1
:100BB8000830A8000310AE0DAF0DB00DB10DA80B95
:100BC800DE2D2108A8002808F00024080A128A153A
:100BD8007C200A128A11710883120313B900700865
:100BE800B8003808A8003908A900AA01AB012808EC
:100BF800AE07290803110318013E031DAF072A0891
:100C080003110318013E031DB0072B080311031835
:100C1800013E031DB1072008A8002808F000250898
:100C28000A128A157C200A128A117108831203138A
:100C3800B9007008B8003808A8003908A900AA0146
:100C4800AB012808AE07290803110318013E031D4C
:100C5800AF072A0803110318013E031DB0072B082C
:100C680003110318013E031DB1070830A800031043
:100C7800AE0DAF0DB00DB10DA80B3B2E2008A8008E
:100C88002808F00024080A128A157C200A128A1102
:100C9800710883120313B9007008B8003808A80057
:100CA8003908A900AA01AB012808AE0729080311D1
:100CB8000318013E031DAF072A0803110318013E5C
:100CC800031DB0072B0803110318013E031DB107CC
:100CD8002108A8002808F00026080A128A157C2096
:100CE8000A128A11710883120313B9007008B80038
:100CF8003808A8003908A900AA01AB012808B407D8
:100D0800290803110318013E031DB5072A0803111A
:100D18000318013E031DB6072B0803110318013EF3
:100D2800031DB7072208A8002808F00025080A12A2
:100D38008A157C200A128A11710883120313B900DC
:100D48007008B8003808A8003908A900AA01AB0142
:100D58002808B407290803110318013E031DB50725
:100D68002A0803110318013E031DB6072B080311B7
:100D78000318013E031DB7072208A8002808F00041
:100D880026080A128A157C200A128A117108831211
:100D98000313B9007008B8003808A8003908A9007A
:100DA800AA01AB0108300310A80DA90DAA0DAB0DBF
:100DB800FF3E031DD72E2808B4072908031103187E
:100DC800013E031DB5072A0803110318013E031D40
:100DD800B6072B0803110318013E031DB7072E0899
:100DE800A8002F08A9003008AA003108AB00183065
:100DF8000310AB0CAA0CA90CA80CFF3E031DFC2E7B
:100E08002808B407290803110318013E031DB50774
:100E18002A0803110318013E031DB6072B08031106
:100E28000318013E031DB7070830A8000310AE0DD4
:100E3800AF0DB00DB10DA80B1A2F33083207A8005B
:100E4800A901A90D2808823EB80029080318013E07
:100E5800FF3EB900B61B4B2F0130A8000310B40D9C
:100E6800B50DB60DB70DA80B322FB11B34140130D8
:100E7800A8000310AE0DAF0DB00DB10DA80B3D2F9E
:100E8800FF30B8070318B90AFF30B9072E2FB2018F
:100E9800B11F642FFF302E05A800FF302F05A900D1
:100EA800FF303005AA007F303105AB002B082A043B
:100EB8002904280403193418622F642FB201B20AD6
:100EC80032080319962F0130B40700300318013097
:100ED800B507003003180130B60700300318013099
:100EE800B707371C962F3408A8003508A90036081C
:100EF800AA003708AB000130AC002B0DAB0CAA0CD4
:100F0800A90CA80CAC0B812F2B08B7002A08B60037
:100F18002908B5002808B4000130B8070318B90A31
:100F28000030B9073908803AFF0080307F02031D7E
:100F38009F2FFF303802031CAC2F7F30831203131E
:100F4800B7008030B6000030B5000030B400DC2FA8
:100F5800831203133908803AFF0080307F02031D93
:100F6800B72F013038020318C52F0030831203133E
:100F7800B7000030B6000030B5000030B400AD0155
:100F8800DC2F831203133808A8002808B300FF30A9
:100F9800B405FF30B5057F30B6050030B705331806
:100FA800B6173308A8000310280CA9002908B700B1
:100FB8002D08A8002808B7043708A3003608A2009F
:100FC8003508A1003408A00008000A128A157A2002
:100FD8000A128A11E8000A128A157B200A128A115D
:100FE800E90083135830840068300A128A110420FB
:100FF80083010A128A158129FF1B0A2883137F1887
:1010080083170008840A0319FF0A080008308A00B9
:101018000408840A8207003441340034313400342F
:10102800323400343334003442340034343400343D
:101038003534003436340034433400343734003423
:101048003834003439340034443400342A34003419
:101058003034003423340034FF3400340134003495
:101068000A34003464340034E83403341034273448
:101078004434693472343A34203441346434653445
:101088006C3461346E3474346534003441346434FF
:1010980065346C3461346E34743465343A342034D5
:1010A80000344434693472343A342034413474346A
:1010B8007234613473340034203443346D34203452
:1010C800643465343A34203400344134743472342E
:1010D800613473343A3420340034303420344334A7
:0A10E8006D34003425346434003404
:1010F40030340034F800F401F5017008F200F30113
:101104007208F6007308F700781C8E287608F40736
:101114000318F50A7708F50701300310F60DF70DEB
:10112400FF3E031D8F280310F80C7808031D862842
:101134007508F1007408F0000800FA01FB017A0850
:101144007507F8007608F7000318F70AFA1BF70387
:101154007708F900790883120313FF0078088400E4
:101164000A128A1500200A128A15003A0319080087
:101174007A087507F8007608F7000318F70AFA1BCF
:10118400F7037708F900790883120313FF0078083E
:1011940084000A128A1500200A128A150A168A1176
:1011A4008B270A128A150130FA070318FB0A00304C
:1011B400FB07A128F7007703031D012974087F3E6C
:1011C400F5007508FA007A08F50004300310F50CF0
:1011D400FF3E031DE8287508F6007608F8007A0833
:1011E4000F39F5007508F90078080A168A11EF26F8
:1011F4000A128A1579080A168A11EF2608000230A5
:101204007706031D08007408BF3EF5007508FA0050
:101214007A08F50004300310F50CFF3E031D0D2978
:101224007508F6007608F8007A080F39F500750895
:10123400F90078080A168A11EF260A128A15790825
:101244000A168A11EF26080000300A168A11D526DC
:101254000A128A153430F500F130F400F40B302909
:10126400F50B3029352903300A168A11EF260A12A4
:101274008A150D30F500FB30F400F40B3F29F50B13
:101284003F29442903300A168A11EF260A128A15C7
:101294001D30F5009130F400F40B4E29F50B4E2966
:1012A40003300A168A11EF260A128A1502300A162A
:1012B4008A11EF260A128A1502300A168A11EF26BD
:1012C4000A128A1508300A168A11EF260A128A159C
:1012D40000300A168A11EF260A128A150C300A16F3
:1012E4008A11EF260A128A1500300A168A11EF268F
:1012F4000A128A1506300A168A11EF2608000A1601
:101304008A112A270A128A150A168A11AD260A1288
:101314008A150A128A1119200A128A150A128A15C4
:101324000A270A128A150A128A15DF220A128A1556
:10133400700883120313D6005608E400640A031DE0
:10134400BC29D2290A128A1119200A128A15D22913
:101354000A128A150A270A128A15D2290A168A112C
:10136400AD260A128A15D2290A128A110C200A12F1
:101374008A15D2296408D600D7015708003A031900
:10138400C429D2295608413A0319A429033A031956
:10139400AA29013A0319B029073A0319B629D2290F
:1013A40083120313061CDF296508031DDF290A12B3
:1013B4008A11D5200A128A15952906189529E5015E
:1013C40095290310831203133C0D3D0DBE003E0806
:1013D400C4004408031DF7290030BD000030BC00E0
:1013E4000030BB000030BA0008003A08BE003B08D9
:1013F400BF003C08C0003D08C1001F300310C10CF1
:10140400C00CBF0CBE0CFF3E031D002A3E08C200E8
:101414004208C300BC17FF30BA05FF30BB05FF30DC
:10142400BC050030BD059630C402C41F2E2A4408F2
:10143400803A973E031CEE2901300310BD0CBC0C0E
:10144400BB0CBA0CFF3E031D1F2A0130BE003E0830
:10145400C4070319412A1E2A203044020318EE2926
:1014640044080319412A0130BE000310BA0DBB0D14
:10147400BC0DBD0DBE0B372A0130C402322A43080D
:1014840003190800BA09BB09BC09BD09BA0A031942
:10149400BB0A0319BC0A0319BD0A0800831203130B
:1014A400A101F31F622AF009F109F209F309F00A14
:1014B4000319F10A0319F20A0319F30AA101A10A93
:1014C400F71F732AF409F509F609F709F40A031951
:1014D400F50A0319F60A0319F70A0130F800780827
:1014E400A1060030A5000030A4000030A3000030A5
:1014F400A20073087204710470040319C82AA001BD
:10150400A00AF31B932A0130F8000310F00DF10D2B
:10151400F20DF30DF80B872A0130F8007808A007C4
:10152400832A0130F8000310A20DA30DA40DA50D0C
:10153400F80B952A73087702031DAA2A720876020B
:10154400031DAA2A71087502031DAA2A70087402D1
:10155400031CBB2A7008F4027108031C710FF50206
:101564007208031C720FF6027308031C730FF70250
:10157400221401300310F30CF20CF10CF00CFF3EBA
:10158400031DBC2A0130A002031D932A210803195C
:10159400D62AA209A309A409A509A20A0319A30A20
:1015A4000319A40A0319A50A2508F3002408F20064
:1015B4002308F1002208F0000800F401F501F50AFF
:1015C400751CE82A831203130514EB2A83120313F0
:1015D40005107508F20001300310F20CFF3E031DE4
:1015E400EE2A721CF92A831203138514FC2A83122F
:1015F400031385107508F20002300310F20CFF3E4D
:10160400031DFF2A721C0A2B8312031305150D2BCD
:101614008312031305117508F20003300310F20C52
:10162400FF3E031D102B721C1B2B83120313051684
:101634001E2B8312031305120330F3009730F200BC
:10164400F20B222BF30B222B272B83120313851966
:10165400472B0130F2007208F407851A472B01303A
:10166400F2007208F407851B472B0130F200720860
:10167400F407051B472B0130F2007208F40703102E
:10168400F50D10307502031CE22A051085100511B2
:101694000512740862060319632B7408F2007208B9
:1016A400E2007408F2007207013E84000A128A15EF
:1016B4000A200A128A15F0000A128A150A20F1007B
:1016C4000800213084000A128A150A200A128A1599
:1016D400F0000A128A150A20F10008000030831273
:1016E40003133A05C20000303B05C30080303C05BB
:1016F400C4007F303D05C50045084404430442044A
:10170400031D8C2B0030BD000030BC000030BB003A
:101714000030BA0000303E05C20000303F05C3006F
:1017240080304005C4007F304105C50045084404AD
:1017340043044204031DA62B0030C1000030C00046
:101744000030BF000030BE00BD1FCC2B0030C200F3
:101754000030C3000030C4008030C5003A08C20223
:101764003B08031C3B0FB72BB82BC3023C08031CDC
:101774003C0FBD2BBE2BC4023D08031C3D0FC32BE5
:10178400C42BC5024508BD004408BC004308BB0087
:101794004208BA00C11FF22B0030C2000030C3005F
:1017A4000030C4008030C5003E08C2023F08031C5C
:1017B4003F0FDD2BDE2BC3024008031C400FE32B3D
:1017C400E42BC4024108031C410FE92BEA2BC50298
:1017D4004508C1004408C0004308BF004208BE00D9
:1017E4008030BD068030C10641083D02031D08005B
:1017F40040083C02031D08003F083B02031D08008B
:101804003E083A020800F8007808031DF31F1A2C5A
:101814007009FA007109FB007209FC007309FD00EC
:10182400FA0A0319FB0A0319FC0A0319FD0A222CFC
:101834007308FD007208FC007108FB007008FA00D0
:101844007308720471047004031D312C0030F3001A
:101854000030F2000030F1000030F0000800963053
:10186400F4007408F900FE307D050319622C013080
:10187400F4007408F90701300310FD0CFC0CFB0C98
:10188400FA0CFF3E031D3E2C352C0130F400740885
:10189400F9070130FA07003003180130FB07003064
:1018A40003180130FC07003003180130FD07013034
:1018B4000310FD0CFC0CFB0CFA0CFF3E031D5A2C10
:1018C400FF307D050319762C472C02307902031C66
:1018D400782C0130F9020130F4000310FA0DFB0DED
:1018E400FC0DFD0DF40B6F2CFC1F672C7918822C5A
:1018F400FF30FA05FF30FB057F30FC05FF30FD05A6
:101904000310F90C7908F400F501F601F701183019
:101914000310F40DF50DF60DF70DFF3E031D8A2C93
:101924007408FA047508FB047608FC047708FD04BF
:101934007808031DF31F9F2CFD177D08F3007C0816
:10194400F2007B08F1007A08F00008008312031308
:10195400071C072D3F30A3007830A2005130A100AE
:10196400EC30A0006008F0006108F1000030F11BC9
:10197400FF30F200F30001300A128A1505240A121E
:101984008A15730883120313A7007208A60071084E
:10199400A5007008A4000A128A11D4240A128A1518
:1019A400831203132308BD002208BC002108BB00D6
:1019B4002008BA005E08F0005F08F1000030F11B57
:1019C400FF30F200F30001300A128A1505240A12CE
:1019D4008A15730883120313C1007208C0007108CA
:1019E400BF007008BE000A128A1570230A128A15F5
:1019F400031C072D83120313E001E1010130870664
:101A040002308706D801D901080083120313871C0A
:101A140008003F30A3007830A2005130A100EC3020
:101A2400A0006008F0006108F1000030F11BFF30F5
:101A3400F200F30001300A128A1505240A128A15ED
:101A4400730883120313A7007208A6007108A50087
:101A54007008A4000A128A11D4240A128A15831267
:101A640003132308BD002208BC002108BB00200882
:101A7400BA005C08F0005D08F1000030F11BFF3093
:101A8400F200F30001300A128A1505240A128A159D
:101A9400730883120313C1007208C0007108BF00E9
:101AA4007008BE000A128A1570230A128A15031CD4
:101AB4000800FC2C831203132608AA002708AB0095
:101AC4002808AC002908AD0006300310AA0DAB0DA0
:101AD400AC0DAD0DFF3E031D672D2D08F3002C0842
:101AE400F2002B08F1002A08F0002608AE002708AF
:101AF400AF002808B0002908B10006300310AE0D6D
:101B0400AF0DB00DB10DFF3E031D802D0030B200AE
:101B14001230B3007A30B4000030B5002E08B2029F
:101B24002F08031C2F0F972D982DB3023008031C88
:101B3400300F9D2D9E2DB4023108031C310FA32DAF
:101B4400A42DB5023508F7003408F6003308F50073
:101B54003208F4000A128A1550220A128A157108F2
:101B6400FA007008F90001307A0200300319790292
:101B7400031C182E831203132608AA002708AB009F
:101B84002808AC002908AD0004300310AA0DAB0DE1
:101B9400AC0DAD0DFF3E031DC72D2D08F3002C0821
:101BA400F2002B08F1002A08F0002608AE002708EE
:101BB400AF002808B0002908B10004300310AE0DAE
:101BC400AF0DB00DB10DFF3E031DE02D0030B2008E
:101BD4001230B3007A30B4000030B5002E08B202DF
:101BE4002F08031C2F0FF72DF82DB3023008031C08
:101BF400300FFD2DFE2DB4023108031C310F032ECE
:101C0400042EB5023508F7003408F6003308F50051
:101C14003208F4000A128A1550220A128A15710831
:101C2400FA007008F90083160313181501307A02BC
:101C34000030031979020318080079088316031386
:101C44009900181283120313981783160313871726
:101C54000717831203131816831603139816080024
:101C640083120313AB002130A3002308A600013024
:101C7400A007FF30200784000A128A150A200A12DE
:101C84008A15A3002308AC002C080319052F25305E
:101C94002C060319592E2C08A3002B0884002308B2
:101CA400831380000130A3002308AB07392EA7015A
:101CB4000130A007FF30200784000A128A150A2089
:101CC4000A128A15AC00A300A4012408003A0319DF
:101CD4006C2E392E2308003A0319052F643A031990
:101CE400772E0D3A0319772E392E26088400831394
:101CF4000008A900840A0008AA000230A3002308EF
:101D0400A607AA1F8E2E0330A3002308A704A9093F
:101D1400AA09A90A0319AA0AAC01AC0A2C08A3004F
:101D24002307233E84000A128A150A200A128A1500
:101D3400A4000A128A150A200A128A15A500250889
:101D44002A02031DA72E24082902031CB12E0130E8
:101D5400A3002308AC0705302C06031D902E27088A
:101D640003390319C02E2D30A3002B088400230847
:101D7400831380000130A3002308AB072C08A300C1
:101D84002308A800FF30A3002308A807280A031982
:101D9400392E0A30F8000030F9002808A300230780
:101DA400233E84000A128A150A200A128A15F000BA
:101DB4000A128A150A200A128A15F1002A08F30069
:101DC4002908F2000A168A11C4270A128A15710812
:101DD400FB007008FA000A168A1159270A128A159C
:101DE4007808303E83120313A4002408AC002C08A6
:101DF400A3002B0884002308831380000130A30070
:101E04002308AB07C42E2B08840083138001080029
:101E140083120313E601E7010A168A11AD260A129A
:101E24008A150A168A11B2260A128A15F401F40ACE
:101E340001300A128A15DC200A128A155A30F5007C
:101E44008030F6000A128A159F200A128A15F401BE
:101E5400F40A02300A128A15DC200A128A1562304A
:101E6400F5008030F6000A128A159F200A128A159E
:101E74000A128A15DF220A128A15700883120313C4
:101E8400D2005208E400213084000A128A150A2084
:101E94000A128A15D2000A128A150A200A128A1511
:101EA400D3006408D400D50153085506031D5C2FE4
:101EB400520854060319F52F6408D200D3015208BE
:101EC400E8005308E900DC2FE601E7010A168A114D
:101ED400B2260A128A15F401F40A01300A128A158C
:101EE400DC200A128A155A30F5008030F6000A12F6
:101EF4008A159F200A128A15F401F40A02300A1284
:101F04008A15DC200A128A156230F5008030F6004A
:101F14000A128A159F200A128A15F52FE001E101A1
:101F24006708DD006608DC000A128A110C200A1218
:101F34008A15831203135C085D04031D0800F52F42
:101F44006708F1006608F0000A30F2000030F30080
:101F54000A168A1109270A128A15831203136808BC
:101F64007007E60069080318690A7107E700D030B2
:101F7400E6070318E70AFF30E707F401F40A023022
:101F84000A128A15DC200A128A15831203136708C1
:101F9400C6006608C5000A168A11BD260A128A15EB
:101FA4006330F5008030F6000A128A159F200A1269
:101FB4008A15F52F6908003A0319E12FA22F680842
:101FC400233A0319F52F093A0319F52F6B3A03192C
:101FD400F52F033A0319662F013A0319F52F073A2F
:101FE4000319902FA22F033083120313D3009730C9
:0C1FF400D200D20BFB2FD30BFB2F3A2F97
:102D5A008312031387100710080000300A168A111D
:102D6A00EF260A168A1101300A168A11EF26080080
:102D7A00673083120313C7004708A0004608A20061
:102D8A004508A10048300A128A1532260A168A1105
:102D9A004830F5000030F6000A128A159F20080014
:102DAA00F000701CDC2E831203138617DF2E8312A9
:102DBA0003138613F01CE32E0616E42E0612701D6A
:102DCA00E82E0617E92E0613F01DED2E86160800CA
:102DDA0086120800F30083120313061173080A16F9
:102DEA008A11D5260A168A118312031386150B3007
:102DFA00F2006230F100F10B002FF20B002F0000FD
:102E0A008312031386110800F401F501701C132FB5
:102E1A007208F4070318F50A7308F507013003105E
:102E2A00F20DF30DFF3E031D142F01300310F10CB8
:102E3A00F00CFF3E031D1B2F70087104031D0B2F9E
:102E4A007508F1007408F000080070308316031347
:102E5A008F040F109001831603178801890101302E
:102E6A008316031386008701831203138701E83050
:102E7A008316031385008312031385018316031334
:102E8A008113003083120313A9000030A8002530F3
:102E9A00A7008030A6000A128A155C250A168A1134
:102EAA000A128A1526210800780879040319862F40
:102EBA00FD01FD0AF91B6D2F01300310F80DF90D04
:102ECA00FF3E031D622F0130FC007C08FD075F2FC7
:102EDA0079087B02031D732F78087A02031C7B2F63
:102EEA007808FA027908031CFB03FB02013003107D
:102EFA00F90CF80CFF3E031D7C2F0130FD02031D67
:102F0A006D2F7B08F9007A08F8000800F4007408AD
:102F1A000F39F1007108F2007408F039F1007108F4
:102F2A00F3008312031306157308F100043003102B
:102F3A00F10CFF3E031D9C2F71080A168A11D52633
:102F4A000A168A118312031386151A30F100F10B3F
:102F5A00AC2F000083120313861172080A168A1115
:102F6A00D5260A168A118312031386151A30F10020
:102F7A00F10BBD2F00008312031386110800F5011F
:102F8A00F601700871040319FB2FF701F70AF11B08
:102F9A00DA2F01300310F00DF10DFF3E031DCF2F84
:102FAA000130F4007408F707CC2F01300310F50D37
:102FBA00F60DFF3E031DDB2F71087302031DE72F79
:102FCA0070087202031CF02F7008F2027108031CC9
:102FDA00F303F302751401300310F10CF00CFF3EF9
:102FEA00031DF12F0130F702031DDA2F7608F100D5
:062FFA007508F00008005C
:04400E00F4EFFFFFCD
:00000001FF
