:020000040000FA
:100000000A128A11DD2F8316031788018901013036
:100010008316031386008701831203138701F030D0
:1000200083160313850083120313850108008312CE
:100030000313071C76283D30A300C630A200A7306A
:10004000A100F030A0006208F0006308F100003069
:10005000F11BFF30F200F30001300A128A15C723AA
:100060000A128A11730883120313A7007208A600EC
:100070007108A5007008A4000A128A11C8240A1287
:100080008A11831203132308BD002208BC00210833
:10009000BB002008BA006008F0006108F1000030E1
:1000A000F11BFF30F200F30001300A128A15C7235A
:1000B0000A128A11730883120313C1007208C00068
:1000C0007108BF007008BE000A128A159B220A122E
:1000D0008A11031C762883120313E201E301013025
:1000E000870602308706DA01DB010800831203135A
:1000F000871C08003D30A300C630A200A730A10035
:10010000F030A0006208F0006308F1000030F11B3D
:10011000FF30F200F30001300A128A15C7230A12D9
:100120008A11730883120313A7007208A6007108CE
:10013000A5007008A4000A128A11C8240A128A11A4
:10014000831203132308BD002208BC002108BB0052
:100150002008BA005E08F0005F08F1000030F11BD3
:10016000FF30F200F30001300A128A15C7230A1289
:100170008A11730883120313C1007208C00071084A
:10018000BF007008BE000A128A159B220A128A114B
:10019000031C08006B2883120313E401E40A0130F6
:1001A000E2070318E30A0030E3070A128A11172056
:1001B0000A128A11831203136208F0006308F10027
:1001C0000030F11BFF30F200F30001300A128A15F3
:1001D000C7230A128A11730883120313A700720837
:1001E000A6007108A5007008A4003D30A300C63029
:1001F000A200A730A100F030A0000A128A11C82482
:100200000A128A11831203132308BD002208BC00BE
:100210002108BB002008BA000A128A1510210A1210
:100220008A11831203133B08DD003A08DC00071C27
:100230009E295B08803AD2005D08803A5202031D75
:1002400023295C085A0203189E29831203135C08B1
:10025000F0005D08F1000030F11BFF30F200F30008
:1002600001300A128A15C7230A128A1173088312F1
:100270000313A7007208A6007108A5007008A40067
:100280003F30A3006630A2006630A1006630A000B7
:100290000A128A1199220A128A118312031323085F
:1002A000BD002208BC002108BB002008BA000A12C9
:1002B0008A1510210A128A11831203133B08DB00EE
:1002C0003A08DA000A168A1168260A128A11F4011D
:1002D000F40A01300A168A11B6270A128A112D3043
:1002E000F5008030F6000A168A1179270A128A1161
:1002F000F401F40A02300A168A11B6270A128A118A
:10030000831203135D08C6005C08C5000A168A1133
:1003100080260A128A115130F5008030F6000A1644
:100320008A1179270A128A11831203136108C60001
:100330006008C5000A168A1180260800831203137C
:10034000871C08005B08803AD2005D08803A5202A0
:10035000031DAC295C085A0203180800831203131A
:100360005C08F0005D08F1000030F11BFF30F20086
:10037000F30001300A128A15C7230A128A11730882
:1003800083120313A7007208A6007108A500700865
:10039000A4003F30A3006630A2006630A1006630A2
:1003A000A0000A128A1199220A128A1183120313D9
:1003B0002308BD002208BC002108BB002008BA00A9
:1003C0000A128A1510210A128A11831203133B089C
:1003D000DB003A08DA006208F0006308F100003040
:1003E000F11BFF30F200F30001300A128A15C72317
:1003F0000A128A11730883120313A7007208A60059
:100400007108A5007008A4003D30A300C630A2000A
:10041000A730A100F030A0000A128A11C8240A12E5
:100420008A11831203132308BD002208BC0021088F
:10043000BB002008BA000A128A1510210A128A117C
:10044000831203133B08DD003A08DC000A168A1108
:1004500068260A128A11F401F40A01300A168A1178
:10046000B6270A128A114630F5008030F6000A16C7
:100470008A1179270A128A11F401F40A02300A1645
:100480008A11B6270A128A11831203136208F00038
:100490006308F1000030F11BFF30F200F30001307F
:1004A0000A128A15C7230A128A11730883120313CA
:1004B000A7007208A6007108A5007008A4003D30CE
:1004C000A300C630A200A730A100F030A0000A129D
:1004D0008A11C8240A128A11831203132308BD004B
:1004E0002208BC002108BB002008BA000A128A15A5
:1004F00010210A128A11831203133B08C6003A081E
:10050000C5000A168A1180260A128A115130F50098
:100510008030F6000A168A1179270A128A1183128E
:1005200003135F08C6005E08C5000A168A118026FC
:1005300008008312031323088039A8002808B0009C
:100540002308A8002807A9002908B200A21B32141A
:1005500032080319B92A320A031DB62A0030A30053
:100560000030A2000030A1000030A000A217A301BB
:10057000C12A0030A3000030A2000030A1000030EA
:10058000A00027088039A8002808B10031083006EB
:10059000031D30172708A8002807A9002908B10063
:1005A000A61B311431080319E32A310A031DE02A7E
:1005B0000030A7000030A6000030A5000030A400E5
:1005C000A617A701EB2A0030A7000030A6000030D4
:1005D000A5000030A400320831020318312B301F6F
:1005E000F52A8030A8002808B0063208A80028089C
:1005F000B3003108A8002808B2003308A800280872
:10060000B1002008A8002808B3002408A800280882
:10061000A0003308A8002808A4002108A800280882
:10062000B3002508A8002808A1003308A80028085E
:10063000A5002208A8002808B3002608A80028085A
:10064000A2003308A8002808A6002308A80028084C
:10065000B3002708A8002808A3003308A80028082A
:10066000A700B3013108A800A9012908AB0032088E
:100670002802AA00031CAB032B08803AFF0080303D
:100680007F02031D452B1A302A02031C7E2B831286
:10069000031323082204210420040319512B0130E1
:1006A000522B0030A8002808B3000030A30000300F
:1006B000A2000030A1000030A0003108A8002808E6
:1006C000B200842B331C6D2B3308A8000310280CB8
:1006D0000138A9002908B3006F2B0310B30C2018B0
:1006E000B3170130A800230DA30CA20CA10CA00C81
:1006F000A80B732B0130A8002808B207831203133C
:1007000031083202031C622B301BC52B3208031D3B
:10071000922B0030A3000030A2000030A100003076
:10072000A00008002408A007250803110318013EB3
:10073000031DA107260803110318013E031DA2078C
:10074000270803110318013E031DA307231C672C70
:10075000331CB32B3308A8000310280C0138A90060
:100760002908B300B52B0310B30C2018B3170130C0
:10077000A800230DA30CA20CA10CA00CA80BB92B54
:100780000130A8002808B207672C2308803AFF0030
:100790002708803A7F02031DD72B26082202031D5B
:1007A000D72B25082102031DD72B2408200203186C
:1007B0002F2CFF30A800FF30A900FF30AA00FF3027
:1007C000AB002408AC002508AD002608AE002708C1
:1007D000AF002008AC022108031C210FF02BF12BE5
:1007E000AD022208031C220FF62BF72BAE022308C2
:1007F000031C230FFC2BFD2BAF022C08A8072D0890
:1008000003182D0F042C052CA9072E0803182E0FF2
:100810000A2C0B2CAA072F0803182F0AAB072B084A
:10082000A3002A08A2002908A1002808A0008030FF
:10083000A8002808B006B309B30A3308031D3D2CED
:100840000130A007003003180130A1070030031861
:100850000130A207003003180130A3073D2C240803
:10086000A0022508031C250FA1022608031C260F41
:10087000A2022708031C270FA30223082204210435
:100880002004031D652C3308031D652C0030A300D4
:100890000030A2000030A1000030A00008000130AC
:1008A000A8000310A00DA10DA20DA30DA80B512CA3
:1008B000B31B2014331C5E2C03145F2C0310B30DE8
:1008C00032080319652C0130B202A21F4F2CB1016E
:1008D000B31F722C33087F3903192018702C722C27
:1008E000B101B10A31080319A52C0130A00700306D
:1008F00003180130A107003003180130A2070030AF
:1009000003180130A307231CA52C2008A8002108E8
:10091000A9002208AA002308AB000130AC002B0D6F
:10092000AB0CAA0CA90CA80CAC0B8F2C2B08A300A9
:100930002A08A2002908A1002808A000320A0319E9
:10094000A52C0130A8002808B207320A031D32087E
:10095000031DB52C0030A3000030A2000030A10020
:100960000030A00032080319B001321CB92CA217C4
:10097000BD2C7F30A8002808A2053208A80003106B
:10098000280CA9002908A300B01F0800A31708001D
:100990008312031323088039A8002808AD00230818
:1009A000A8002807A9002908B300A21B33143308A4
:1009B0000319E72C330A031DE52C0030A300003097
:1009C000A2000030A1000030A000A217EF2C0030E0
:1009D000A3000030A2000030A1000030A0002708D2
:1009E0008039A8002808AD062708A8002807A90014
:1009F0002908B200A61B3214320803190C2D320A42
:100A0000031D0A2D0030A7000030A6000030A5000D
:100A10000030A400A617142D0030A7000030A60057
:100A20000030A5000030A4003208031D3308031D68
:100A3000222D0030A3000030A2000030A1000030C1
:100A4000A00008002008A8002808F00026080A16C0
:100A50008A11ED260A128A11710883120313B90054
:100A60007008B8003808A800A901AA01AB012B083A
:100A7000B1002A08B0002908AF002808AE003908E4
:100A8000A800A901AA01AB012B08B7002A08B600EB
:100A90002908B5002808B4002108A8002808F0009B
:100AA00025080A168A11ED260A128A117108831286
:100AB0000313B9007008B8003808A800A901AA01FA
:100AC000AB012808AE07290803110318013E031DD6
:100AD000AF072A0803110318013E031DB0072B08B6
:100AE00003110318013E031DB1073908A800A9012D
:100AF000AA01AB012808B407290803110318013E15
:100B0000031DB5072A0803110318013E031DB6078C
:100B10002B0803110318013E031DB7072208A80084
:100B20002808F00024080A168A11ED260A128A11F4
:100B3000710883120313B9007008B8003808A800C0
:100B4000A901AA01AB012808AE072908031103185F
:100B5000013E031DAF072A0803110318013E031DC0
:100B6000B0072B0803110318013E031DB107390814
:100B7000A800A901AA01AB012808B407290803119C
:100B80000318013E031DB5072A0803110318013E8F
:100B9000031DB6072B0803110318013E031DB707F9
:100BA0000830A8000310AE0DAF0DB00DB10DA80BAD
:100BB000D22D2108A8002808F00024080A168A115E
:100BC000ED260A128A11710883120313B900700806
:100BD000B8003808A8003908A900AA01AB01280804
:100BE000AE07290803110318013E031DAF072A08A9
:100BF00003110318013E031DB0072B08031103184E
:100C0000013E031DB1072008A8002808F0002508B0
:100C10000A168A11ED260A128A117108831203132B
:100C2000B9007008B8003808A8003908A900AA015E
:100C3000AB012808AE07290803110318013E031D64
:100C4000AF072A0803110318013E031DB0072B0844
:100C500003110318013E031DB1070830A80003105B
:100C6000AE0DAF0DB00DB10DA80B2F2E2008A800B2
:100C70002808F00024080A168A11ED260A128A11A3
:100C8000710883120313B9007008B8003808A8006F
:100C90003908A900AA01AB012808AE0729080311E9
:100CA0000318013E031DAF072A0803110318013E74
:100CB000031DB0072B0803110318013E031DB107E4
:100CC0002108A8002808F00026080A168A11ED2637
:100CD0000A128A11710883120313B9007008B80050
:100CE0003808A8003908A900AA01AB012808B407F0
:100CF000290803110318013E031DB5072A08031133
:100D00000318013E031DB6072B0803110318013E0B
:100D1000031DB7072208A8002808F00025080A16B6
:100D20008A11ED260A128A11710883120313B90081
:100D30007008B8003808A8003908A900AA01AB015A
:100D40002808B407290803110318013E031DB5073D
:100D50002A0803110318013E031DB6072B080311CF
:100D60000318013E031DB7072208A8002808F00059
:100D700026080A168A11ED260A128A1171088312B2
:100D80000313B9007008B8003808A8003908A90092
:100D9000AA01AB0108300310A80DA90DAA0DAB0DD7
:100DA000FF3E031DCB2E2808B407290803110318A2
:100DB000013E031DB5072A0803110318013E031D58
:100DC000B6072B0803110318013E031DB7072E08B1
:100DD000A8002F08A9003008AA003108AB0018307D
:100DE0000310AB0CAA0CA90CA80CFF3E031DF02E9F
:100DF0002808B407290803110318013E031DB5078D
:100E00002A0803110318013E031DB6072B0803111E
:100E10000318013E031DB7070830A8000310AE0DEC
:100E2000AF0DB00DB10DA80B0E2F33083207A8007F
:100E3000A901A90D2808823EB80029080318013E1F
:100E4000FF3EB900B61B3F2F0130A8000310B40DC0
:100E5000B50DB60DB70DA80B262FB11B34140130FC
:100E6000A8000310AE0DAF0DB00DB10DA80B312FC2
:100E7000FF30B8070318B90AFF30B907222FB201B3
:100E8000B11F582FFF302E05A800FF302F05A900F5
:100E9000FF303005AA007F303105AB002B082A0453
:100EA0002904280403193418562F582FB201B20A06
:100EB000320803198A2F0130B407003003180130BB
:100EC000B507003003180130B607003003180130B1
:100ED000B707371C8A2F3408A8003508A900360840
:100EE000AA003708AB000130AC002B0DAB0CAA0CEC
:100EF000A90CA80CAC0B752F2B08B7002A08B6005C
:100F00002908B5002808B4000130B8070318B90A49
:100F10000030B9073908803AFF0080307F02031D96
:100F2000932FFF303802031CA02F7F30831203134E
:100F3000B7008030B6000030B5000030B400D02FCC
:100F4000831203133908803AFF0080307F02031DAB
:100F5000AB2F013038020318B92F0030831203136E
:100F6000B7000030B6000030B5000030B400AD016D
:100F7000D02F831203133808A8002808B300FF30CD
:100F8000B405FF30B5057F30B6050030B70533181E
:100F9000B6173308A8000310280CA9002908B700C9
:100FA0002D08A8002808B7043708A3003608A200B7
:100FB0003508A1003408A00008000A168A1160262E
:100FC0000A128A11E9000A168A1161260A128A1188
:100FD000EA000A168A116226EB00DA01DB01DC0165
:100FE000DD01DE01DF01E001E101E201E301E401F5
:100FF000E501E601E701E80183010A128A15302BB9
:10100000FF1B0A2883137F1883170008840A03191B
:10101000FF0A080008308A000408840A82070034A6
:101020004134003431340034323400343334003449
:10103000423400343434003435340034363400342F
:101040004334003437340034383400343934003415
:10105000443400342A34003430340034233400342F
:10106000FF340034013400340A3400346434003472
:10107000E8340334103427344434693472343A3455
:1010800020344134643465346C3461346E347434E7
:10109000653400344134643465346C3461346E3406
:1010A000743465343A34203400344434693472344E
:1010B0003A3420344134743472346134733400343B
:1010C000203443346D342034643465343A3420346D
:1010D0000034413474347234613473343A3420341B
:1010E00000343034203443346D34003425346434D7
:1010F0000034F501F601700871040319B028F701F6
:10110000F70AF11B8F2801300310F00DF10DFF3E9F
:10111000031D84280130F4007408F707812801308A
:101120000310F50DF60DFF3E031D902871087302A4
:10113000031D9C2870087202031CA5287008F20287
:101140007108031CF303F302751401300310F10C52
:10115000F00CFF3E031DA6280130F702031D8F2867
:101160007608F1007508F000080000300A168A11B0
:1011700098260A128A151A30F500F830F400F40B9C
:10118000BF28F50BBF28000003300A168A11B226CB
:101190000A128A150730F5007D30F400F40BCE28D2
:1011A000F50BCE2803300A168A11B2260A128A15C8
:1011B0000F30F5004730F400F40BDC28F50BDC2889
:1011C000E12803300A168A11B2260A128A15023063
:1011D0000A168A11B2260A128A1502300A168A11D4
:1011E000B2260A128A1508300A168A11B2260A1285
:1011F0008A1500300A168A11B2260A128A150C3096
:101200000A168A11B2260A128A1500300A168A11A5
:10121000B2260A128A1506300A168A11B22608006A
:101220000310831203133C0D3D0DBE003E08C400A5
:101230004408031D24290030BD000030BC000030EC
:10124000BB000030BA0008003A08BE003B08BF00EF
:101250003C08C0003D08C1001F300310C10CC00C89
:10126000BF0CBE0CFF3E031D2D293E08C2004208E4
:10127000C300BC17FF30BA05FF30BB05FF30BC050B
:101280000030BD059630C402C41F5B294408803A73
:10129000973E031C1B2901300310BD0CBC0CBB0C7A
:1012A000BA0CFF3E031D4C290130BE003E08C407A6
:1012B00003196E294B292030440203181B294408C6
:1012C00003196E290130BE000310BA0DBB0DBC0D11
:1012D000BD0DBE0B64290130C4025F294308031908
:1012E0000800BA09BB09BC09BD09BA0A0319BB0A3F
:1012F0000319BC0A0319BD0A080083120313A101D4
:10130000F31F8F29F009F109F209F309F00A031913
:10131000F10A0319F20A0319F30AA101A10AF71F3E
:10132000A029F409F509F609F709F40A0319F50AE1
:101330000319F60A0319F70A0130F8007808A10624
:101340000030A5000030A4000030A3000030A2004F
:1013500073087204710470040319F529A001A00A2E
:10136000F31BC0290130F8000310F00DF10DF20D50
:10137000F30DF80BB4290130F8007808A007B02964
:101380000130F8000310A20DA30DA40DA50DF80B5C
:10139000C22973087702031DD72972087602031D3C
:1013A000D72971087502031DD72970087402031C20
:1013B000E8297008F4027108031C710FF502720825
:1013C000031C720FF6027308031C730FF70222143A
:1013D00001300310F30CF20CF10CF00CFF3E031D76
:1013E000E9290130A002031DC02921080319032A9D
:1013F000A209A309A409A509A20A0319A30A0319AA
:10140000A40A0319A50A2508F3002408F2002308FA
:10141000F1002208F0000800F301F401F40A741C42
:10142000152A831203130514182A831203130510B7
:101430007408F20001300310F20CFF3E031D1B2A5A
:10144000721C262A831203138514292A831203137C
:1014500085107408F20002300310F20CFF3E031DE9
:101460002C2A721C372A8312031305153A2A831279
:10147000031305117408F20003300310F20CFF3E51
:10148000031D3D2A721C482A8312031385154B2A1B
:10149000831203138511C730F2004E2AF20B4D2A36
:1014A000512A522A83120313051A722A0130F200BC
:1014B0007208F307851A722A0130F2007208F307E6
:1014C000051B722A0130F2007208F307851B722A8D
:1014D0000130F2007208F3070310F40D10307402AB
:1014E000031C0F2A05108510051185117308650668
:1014F00003198E2A7308F2007208E5007308F200DF
:101500007207013E84000A128A150A200A128A15FF
:10151000F0000A128A150A20F10008002130840028
:101520000A128A150A200A128A15F0000A128A1570
:101530000A20F10008000030831203133A05C200AC
:1015400000303B05C30080303C05C4007F303D05C2
:10155000C5004508440443044204031DB72A003073
:10156000BD000030BC000030BB000030BA000030CD
:101570003E05C20000303F05C30080304005C40076
:101580007F304105C5004508440443044204031D5F
:10159000D12A0030C1000030C0000030BF00003050
:1015A000BE00BD1FF72A0030C2000030C30000306B
:1015B000C4008030C5003A08C2023B08031C3B0F40
:1015C000E22AE32AC3023C08031C3C0FE82AE92A6A
:1015D000C4023D08031C3D0FEE2AEF2AC502450850
:1015E000BD004408BC004308BB004208BA00C11F4C
:1015F0001D2B0030C2000030C3000030C40080301A
:10160000C5003E08C2023F08031C3F0F082B092BF0
:10161000C3024008031C400F0E2B0F2BC4024108CD
:10162000031C410F142B152BC5024508C1004408AB
:10163000C0004308BF004208BE008030BD068030B5
:10164000C10641083D02031D080040083C02031D7D
:1016500008003F083B02031D08003E083A0208004C
:10166000831603138113003083120313A900003083
:10167000A8002530A7008030A6000A128A156A2427
:101680000A128A150A128A1103200A128A150A12EE
:101690008A15B5200A128A150A168A1163260A12BB
:1016A0008A150A128A150C270A128A150A128A1537
:1016B00018260A128A150A128A150C220A128A158D
:1016C000700883120313D6005608EB002130840003
:1016D0000A128A150A200A128A15D6000A128A15D9
:1016E0000A200A128A15D7006B08D800D9015708BA
:1016F0005906031D7D2B56085806031D982BAE2B4B
:101700000A128A150C270A128A15AE2B0A128A159C
:1017100018260A128A15AE2B0A168A1163260A1297
:101720008A15AE2B0A168A1173260A128A15AE2B59
:101730006B08D600D7015708003A0319A02BAE2B2F
:101740005608413A0319802B033A0319862B013AB4
:1017500003198C2B073A0319922BAE2B8312031318
:10176000061CBB2B6408031DBB2B0A128A11CB205D
:101770000A128A15BE2B0618BE2BE401C73083124D
:101780000313D600C32BD60BC22BC62B5B2BF80042
:101790007808031DF31FDC2B7009FA007109FB00A8
:1017A0007209FC007309FD00FA0A0319FB0A031908
:1017B000FC0A0319FD0AE42B7308FD007208FC0003
:1017C0007108FB007008FA00730872047104700459
:1017D000031DF32B0030F3000030F2000030F10065
:1017E0000030F00008009630F4007408F900FE3074
:1017F0007D050319242C0130F4007408F907013029
:101800000310FD0CFC0CFB0CFA0CFF3E031D002C1E
:10181000F72B0130F4007408F9070130FA070030A3
:1018200003180130FB07003003180130FC070030BB
:1018300003180130FD0701300310FD0CFC0CFB0CFC
:10184000FA0CFF3E031D1C2CFF307D050319382CBC
:10185000092C02307902031C3A2C0130F9020130C4
:10186000F4000310FA0DFB0DFC0DFD0DF40B312CF3
:10187000FC1F292C7918442CFF30FA05FF30FB059A
:101880007F30FC05FF30FD050310F90C7908F400EA
:10189000F501F601F70118300310F40DF50DF60D02
:1018A000F70DFF3E031D4C2C7408FA047508FB0469
:1018B0007608FC047708FD047808031DF31F612CEB
:1018C000FD177D08F3007C08F2007B08F1007A0820
:1018D000F0000800831203132608AA002708AB00B3
:1018E0002808AC002908AD0006300310AA0DAB0D86
:1018F000AC0DAD0DFF3E031D752C2D08F3002C081B
:10190000F2002B08F1002A08F0002608AE00270894
:10191000AF002808B0002908B10006300310AE0D52
:10192000AF0DB00DB10DFF3E031D8E2C0030B20087
:101930000930B3003D30B4000030B5002E08B202CB
:101940002F08031C2F0FA52CA62CB3023008031C54
:10195000300FAB2CAC2CB4023108031C310FB12C6E
:10196000B22CB5023508F7003408F6003308F5004C
:101970003208F4000A128A157D210A128A157108AC
:10198000FA007008F90001307A0200300319790278
:10199000031C262D831203132608AA002708AB0078
:1019A0002808AC002908AD0004300310AA0DAB0DC7
:1019B000AC0DAD0DFF3E031DD52C2D08F3002C08FA
:1019C000F2002B08F1002A08F0002608AE002708D4
:1019D000AF002808B0002908B10004300310AE0D94
:1019E000AF0DB00DB10DFF3E031DEE2C0030B20067
:1019F0000930B3003D30B4000030B5002E08B2020B
:101A00002F08031C2F0F052D062DB3023008031CD1
:101A1000300F0B2D0C2DB4023108031C310F112D8A
:101A2000122DB5023508F7003408F6003308F5002A
:101A30003208F4000A128A157D210A128A157108EB
:101A4000FA007008F90083160313181501307A02A2
:101A5000003003197902031808007908831603136C
:101A6000990018128312031398178316031387170C
:101A7000071783120313181683160313981608000A
:101A800083120313AB002130A3002308A60001300A
:101A9000A007FF30200784000A128A150A200A12C4
:101AA0008A15A3002308AC002C080319132E253037
:101AB0002C060319672D2C08A3002B08840023088B
:101AC000831380000130A3002308AB07472DA70133
:101AD0000130A007FF30200784000A128A150A206F
:101AE0000A128A15AC00A300A4012408003A0319C5
:101AF0007A2D472D2308003A0319132E643A03194F
:101B0000852D0D3A0319852D472D26088400831352
:101B10000008A900840A0008AA000230A3002308D4
:101B2000A607AA1F9C2D0330A3002308A704A90918
:101B3000AA09A90A0319AA0AAC01AC0A2C08A30035
:101B40002307233E84000A128A150A200A128A15E6
:101B5000A4000A128A150A200A128A15A50025086F
:101B60002A02031DB52D24082902031CBF2D0130B4
:101B7000A3002308AC0705302C06031D9E2D270863
:101B800003390319CE2D2D30A3002B088400230820
:101B9000831380000130A3002308AB072C08A300A7
:101BA0002308A800FF30A3002308A807280A031968
:101BB000472D0A30F8000030F9002808A300230759
:101BC000233E84000A128A150A200A128A15F000A0
:101BD0000A128A150A200A128A15F1002A08F3004F
:101BE0002908F2000A128A1579200A128A1571084A
:101BF000FB007008FA000A168A1110270A128A15CB
:101C00007808303E83120313A4002408AC002C088B
:101C1000A3002B0884002308831380000130A30055
:101C20002308AB07D22D2B08840083138001080002
:101C300083120313E701E8010A168A1163260A12C8
:101C40008A150A168A1168260A128A15F401F40AFE
:101C500001300A168A11B6270A128A155A30F50081
:101C60008030F6000A168A1179270A128A15F401C3
:101C7000F40A02300A168A11B6270A128A1562304F
:101C8000F5008030F6000A168A1179270A128A15A3
:101C90000A128A150C220A128A157008831203137D
:101CA000D2005208EB00213084000A128A150A2063
:101CB0000A128A15D2000A128A150A200A128A15F7
:101CC000D3006B08D400D50153085506031D6A2EB6
:101CD000520854060319032F6B08D200D30152088F
:101CE000E9005308EA00EA2EE701E8010A168A1122
:101CF00068260A128A15F401F40A01300A168A11BC
:101D0000B6270A128A155A30F5008030F6000A16F6
:101D10008A1179270A128A15F401F40A02300A1688
:101D20008A11B6270A128A156230F5008030F60053
:101D30000A168A1179270A128A15032FE201E30194
:101D40006808DF006708DE000A168A1173260A1287
:101D50008A15831203135E085F04031D0800032F16
:101D60006808F1006708F0000A30F2000030F30064
:101D70000A168A11CC260A128A15831203136908DF
:101D80007007E7006A0803186A0A7107E800D03094
:101D9000E7070318E80AFF30E807F401F40A023005
:101DA0000A168A11B6270A128A15831203136808C5
:101DB000C6006708C5000A168A1180260A128A150D
:101DC0006330F5008030F6000A168A1179270A126E
:101DD0008A15032F6A08003A0319EF2EB02E6908FE
:101DE000233A0319032F093A0319032F6B3A0319F6
:101DF000032F033A0319742E013A0319032F073AEC
:101E000003199E2EB02EC73083120313D200082F61
:101E1000D20B072F0B2F482E83120313E701E80183
:101E20000A168A1163260A128A150A168A1168266A
:101E30000A128A15F401F40A01300A168A11B6272B
:101E40000A128A153B30F5008030F6000A168A1116
:101E500079270A128A15F401F40A02300A168A1147
:101E6000B6270A128A156230F5008030F6000A168D
:101E70008A1179270A128A150A128A150C220A1267
:101E80008A15700883120313D2005208EB00213028
:101E900084000A128A150A200A128A15D2000A1230
:101EA0008A150A200A128A15D3006B08D400D501BE
:101EB00053085506031D5E2F520854060319F72FC9
:101EC0006B08D200D3015208E9005308EA00DE2F64
:101ED000E701E8010A168A1168260A128A15F40138
:101EE000F40A01300A168A11B6270A128A153B3005
:101EF000F5008030F6000A168A1179270A128A1531
:101F0000F401F40A02300A168A11B6270A128A1559
:101F10006230F5008030F6000A168A1179270A121D
:101F20008A15F72FE201E3016808E1006708E00085
:101F30000A168A1173260A128A158312031360087F
:101F40006104031D0800F72F6808F1006708F0001E
:101F50000A30F2000030F3000A168A11CC260A1269
:101F60008A158312031369087007E7006A080318CB
:101F70006A0A7107E800D030E7070318E80AFF3063
:101F8000E807F401F40A02300A168A11B6270A1289
:101F90008A15831203136808C6006708C5000A166D
:101FA0008A1180260A128A156330F5008030F60007
:101FB0000A168A1179270A128A15F72F6A08003A39
:101FC0000319E32FA42F6908233A0319F72F093ABD
:101FD0000319F72F6B3A0319682F033A0319F72FE8
:101FE000013A0319F72F073A0319922FA42FC7308C
:101FF00083120313D200FC2FD20BFB2FFF2F3C2F99
:102CC00030340034303483120313871007100800A7
:102CD00000300A168A11B2260A168A1101300A1625
:102CE0008A11B2260800831203135E085F040319D9
:102CF0000800600861040319080007148710080021
:102D0000673083120313C7004708A0004608A200DB
:102D10004508A10048300A128A1540250A168A1172
:102D20004830F5000030F6000A168A1179270800AD
:102D3000F000701C9F2E831203130616A22E83121E
:102D400003130612F01CA62E8616A72E8612701DDF
:102D5000AB2E0617AC2E0613F01DB02E86170800FA
:102D600086130800F30083120313061173080A1672
:102D70008A1198260A168A118312031386150630C3
:102D8000F2003030F100F10BC32EF20BC32E000025
:102D90008312031386110800F401F501701CD62E6E
:102DA0007208F4070318F50A7308F50701300310D9
:102DB000F20DF30DFF3E031DD72E01300310F10C71
:102DC000F00CFF3E031DDE2E70087104031DCE2E95
:102DD0007508F1007408F0000800F800F401F5012E
:102DE0007008F200F3017208F6007308F700781C0F
:102DF000FF2E7608F4070318F50A7708F507013067
:102E00000310F60DF70DFF3E031D002F0310F80C05
:102E10007808031DF72E7508F1007408F00008000B
:102E20007808790403193D2FFD01FD0AF91B242FB1
:102E300001300310F80DF90DFF3E031D192F01306D
:102E4000FC007C08FD07162F79087B02031D2A2F42
:102E500078087A02031C322F7808FA027908031CDA
:102E6000FB03FB0201300310F90CF80CFF3E031DBD
:102E7000332F0130FD02031D242F7B08F9007A084F
:102E8000F8000800F40074080F39F1007108F2002E
:102E90007408F039F1007108F3008312031306156A
:102EA0007308F10004300310F10CFF3E031D532F93
:102EB00071080A168A1198260A168A1183120313BA
:102EC00086150D30F100F10B632F83120313861169
:102ED00072080A168A1198260A168A118312031399
:102EE00086150D30F100F10B732F83120313861139
:102EF0000800FA01FB017A087507F8007608F70068
:102F00000318F70AFA1BF7037708F9007908831208
:102F10000313FF00780884000A128A1500200A169D
:102F20008A11003A031908007A087507F800760834
:102F3000F7000318F70AFA1BF7037708F900790876
:102F400083120313FF00780884000A128A150020F8
:102F50000A168A110A168A1142270A168A110130A6
:102F6000FA070318FB0A0030FB077B2FF7007703F3
:102F7000031DDB2F74087F3EF5007508FA007A0800
:102F8000F50004300310F50CFF3E031DC22F750839
:102F9000F6007608F8007A080F39F5007508F90090
:102FA00078080A168A11B2260A168A1179080A16B2
:102FB0008A11B226080002307706031D0800740843
:102FC000BF3EF5007508FA007A08F50004300310DA
:102FD000F50CFF3E031DE72F7508F6007608F80094
:102FE0007A080F39F5007508F90078080A168A1171
:102FF000B2260A168A1179080A168A11B226080022
:04400E00F4EFFFFFCD
:00000001FF
